:0200000480007A
:100000006F00804B6F00C02B6F00004A6F00C0492B
:100010006F0080496F0040496F0000496F00C04881
:100020006F0080486F0040486F0000486F00C04775
:100030006F0080476F0040476F0000476F00C04669
:100040006F0080466F0040466F0000466F00C0455D
:100050006F0080456F0040456F0000456F00C04451
:100060006F0080446F0040446F0000446F00C04345
:100070006F0080436F0040436F0000436F000054E7
:1000800097310100938101F217010300130181F7F9
:1000900017050000130505F713651500731055309B
:1000A000138581F4138681253306A640930500004D
:1000B000EF50C046175500001305C540EF30502CD7
:1000C000EF504036130500009305000013060000B2
:0C00D000EF0000016F30102C6780000072
:1000E000130101812324817E2326117E2322917E08
:1000F0002320217F232E317D232C417D9306000078
:10010000130101FD130600009305000013050020F4
:10011000EF20D05E130405001705010013054551BB
:10012000EF4090376306041613050400EF201066B5
:10013000170501001305C551EF401036F32420B018
:10014000F32900B0970501009385455C1306010073
:1001500013050400EF304004732920B0732A00B067
:10016000170501001305C54FEF401033B305994043
:1001700033063A41170501001305854FEF40D00CB7
:10018000371600001306068097150100938505D8E1
:1001900013050100EF401076930405006310050479
:1001A0001705010013054554EF40102F13050400F7
:1001B000EF30D021130101038320C17E1385040099
:1001C0000324817E8324417E0329017E8329C17D0E
:1001D000032A817D1301017F67800000170501005C
:1001E0001305054CEF40502BB71700009382078092
:1001F00013040100B3892200170901001309494EB5
:1002000003162400831504001305090013040402D7
:10021000EF409003031664FE831544FE13050900A6
:10022000EF4090020316A4FE831584FE1305090017
:10023000EF4090010316E4FE8315C4FE1305090088
:10024000EF409000031624FF831504FF13050900F7
:10025000EF40807F031664FF831544FF13050900F8
:10026000EF40807E0316A4FF831584FF1305090069
:10027000EF40807D0316E4FF8315C4FF13050900DA
:10028000EF40807CE31E34F7930410006FF09FF280
:10029000170501001305853AEF4010209304100064
:1002A0006FF05FF10000000000000000000000009F
:1002B0001305000067800000130000001300000019
:1002C0001305000067800000130000001300000009
:1002D00013050000678000001300000013000000F9
:1002E00013050000678000001300000013000000E9
:1002F00013050000678000001300000013000000D9
:1003000013050000678000001300000013000000C8
:1003100013050000678000001300000013000000B8
:1003200013050000678000001300000013000000A8
:100330001305000067800000130000001300000098
:100340001305000067800000130000001300000088
:100350001305000067800000130000001300000078
:100360001305000067800000130000001300000068
:100370001305000067800000130000001300000058
:100380001305000067800000130000001300000048
:100390001305000067800000130000001300000038
:1003A0001305000067800000130000001300000028
:1003B0001305000067800000130000001300000018
:1003C0001305000067800000130000001300000008
:1003D00013050000678000001300000013000000F8
:1003E00013050000678000001300000013000000E8
:1003F00013050000678000001300000013000000D8
:1004000013050000678000001300000013000000C7
:1004100013050000678000001300000013000000B7
:1004200013050000678000001300000013000000A7
:100430001305000067800000130000001300000097
:100440001305000067800000130000001300000087
:100450001305000067800000130000001300000077
:100460001305000067800000130000001300000067
:100470001305000067800000130000001300000057
:100480001305000067800000130000001300000047
:100490001305000067800000130000001300000037
:1004A000130500006780000017050100130555FBC8
:1004B000EF40807E6FF05FFF130101FC23201100ED
:1004C0002322A1002324B1002326C1002328D10028
:1004D000232AE100232CF100232E01012320110304
:1004E0002322510223246102232671022328C103FF
:1004F000232AD103232CE103232EF103F3222034FA
:1005000013032000638862021303B0006388620053
:1005100013033000638862006F00C002EF00403EAA
:100520006F00400317050100130545EFEF40C0764B
:100530006F00400217050100130545E9EF40C07543
:100540006F00400117050100130565EFEF40C0740F
:100550006F004002F32210340383020013053000C1
:100560003373A3006314A3009382220093822200BA
:1005700073901234832001000325410083258100FC
:100580000326C1008326010103274101832781013E
:100590000328C1018328010283224102032381022F
:1005A0008323C102032E0103832E4103032F810302
:1005B000832FC10313010104730020307300203026
:1005C0003305A04023AEA1F41305F0FF67800000BF
:1005D00097070100938707EB1308500537070010B2
:1005E0002320070183C61700638006062320D70057
:1005F00083C22700638A02042320570003C3370005
:10060000630403042320670083C34700638E03024F
:100610002320770003C55700630805022320A700A5
:1006200083C56700638205022320B70003C67700F5
:1006300093878700630A06002320C70003C80700CA
:10064000E31008FA678000006780000013000000D4
:100650009307800523AEF1F41305F0FF67800000D7
:100660009307800523AEF1F41305F0FF67800000C7
:100670009307800523AEF1F41305F0FF67800000B7
:100680009307800523AEF1F41305F0FF67800000A7
:100690009307800523AEF1F41305F0FF6780000097
:1006A0001305F0FF67800000130000001300000036
:1006B0009307C00023AEF1F41305F0FF678000003C
:1006C000B707048023A0A700730050106F0000003C
:1006D0009307800523AEF1F41305F0FF6780000057
:1006E0009307B00023AEF1F41305F0FF678000001C
:1006F000B727000023A2F500130500006780000063
:100700009307800523AEF1F41305F0FF6780000026
:100710009307800523AEF1F41305F0FF6780000016
:10072000930780FA23AEF1F4130500006780000000
:100730001305100067800000130000001300000084
:10074000930780FA23AEF1F41305F0FF67800000F1
:100750001305F5FF13351500678000001300000036
:100760009307600123AEF1F41305F0FF67800000EA
:100770009307F00123AEF1F41305F0FF678000004A
:100780001305000067800000130000001300000044
:100790009307800523AEF1F41305F0FF6780000096
:1007A0001305F0FF67800000130000001300000035
:1007B0009307800523AEF1F41305F0FF6780000076
:1007C0001305000067800000130000001300000004
:1007D000B727000023A2F500130500006780000082
:1007E0001305F0FF678000001300000013000000F5
:1007F0001305F0FF678000001300000013000000E5
:100800009307200023AEF1F41305F0FF678000008A
:100810009307800523AEF1F41305F0FF6780000015
:100820009307A00023AEF1F41305F0FF67800000EA
:10083000130101FF23202101138981F4832709007B
:100840002324810023229100232611009384050094
:1008500013040600638A070213060400938504004C
:1008600017250100130505F4EF0080598320C1000E
:10087000130504000324810083244100032901009F
:100880001301010167800000B7C5010013063000A5
:1008900093850520172501001305C5F0EF00404999
:1008A00093021000232059006FF01FFB130000007B
:1008B00023ACA1F2130500006780000013000000C4
:1008C000138781F3032307003305A3002320A70028
:1008D000637C250097F202009382C2726376550012
:1008E00013050300678000009307C0001303F0FFA7
:1008F00023AEF1F41305030067800000130000002D
:10090000130101FF232291002326110093071008F1
:100910009384050063CC170D9307F00263D6170389
:10092000938008FD9302100563E41202170301008F
:10093000130383B79398200033876800832307004D
:10094000B385630067800500930E1001638AD80F9A
:1009500093045005170701001307C7B2B70F001023
:1009600023A09F0083471700638E070423A0FF0086
:10097000834027006388000423A01F0083423700C0
:100980006382020423A05F0003434700630C030259
:1009900023A06F00834857006386080223A01F012D
:1009A000834367006380030223A07F0083457700B1
:1009B000638A05001307870023A0BF008344070054
:1009C000E39004FA8320C100832441001301010154
:1009D000678000008320C100130E800523AEC1F59F
:1009E0008324410013010101678000009300F0405F
:1009F000E3C010F79302F03F63D61203938808C058
:100A00001303F000E36613F517070100130747BE51
:100A1000939328003385E300832505003386E500A2
:100A200067000600130EC00AE38EC8F963461E0372
:100A3000130F9009E388E8F9930F900AE39AF8F10D
:100A4000130F80FA23AEE1F56FF0DFF737250000D2
:100A500023A2A4006FF01FF7930E600DE39AD8EF66
:100A600023ACA1F26FF01FF61308F00123AE01F5DD
:100A70006FF05FF59306200023AED1F46FF09FF482
:100A8000370404802320A400730050106F0000007E
:100A90009304600123AE91F46FF0DFF22320210173
:100AA000138981F42324810013040600032609001E
:100AB00063060602130604000324810003290100D3
:100AC0008320C10093850400832441001725010081
:100AD000130545CD130101016F008032B7C6010037
:100AE000130630009385062017250100130585CBDA
:100AF000EF00002413081000232009016FF09FFB72
:100B00008327C500638807208328050163840820A4
:100B10000328050003469500032745018346480145
:100B2000B3E2C600A304550013F306026302031EDA
:100B3000B383E84093050001138F030063F475004D
:100B4000130F0001638AE81C338EE700834E0E000A
:100B5000930F1700130610002300D801232AF50174
:100B60006370761AB386F70183C206001303270069
:100B70009305200023005800232A650063F27518AE
:100B8000338E6700834E0E00130637009306300045
:100B90002300D801232AC50063F47616B382C70068
:100BA00003C3020093054700130E400023006800B2
:100BB000232AB50063767E14B38EB70083C60E0079
:100BC00013065700930250002300D800232AC500C3
:100BD00063F872123383C70083450300930E6700E6
:100BE000130E60002300B800232AD501637A7E101B
:100BF000B386D70183C20600130677001303700083
:100C000023005800232AC500637C730EB385C700F8
:100C100083CE050093068700130E80002300D801C1
:100C2000232AD500637E7E0CB382D70003C3020063
:100C3000130697009305900023006800232AC5003F
:100C400063F0750CB38EC70083C60E009302A70035
:100C5000130EA0002300D800232A550063727E0AD9
:100C600033835700834503001306B700930EB0008B
:100C70002300B800232AC50063F47E08B386C700AA
:100C800083C206001303C700130EC00023005800E0
:100C9000232A650063767E06B385670083CE050050
:100CA0001306D7009306D0002300D801232AC500DD
:100CB00063F87604B382C70003C302009305E7001C
:100CC000130EE00023006800232AB500637A7E0239
:100CD000B38EB70083C60E001306F7009302F00030
:100CE0002300D800232AC50063FC7200B387C70025
:100CF00003C307001307070123006800232AE50048
:100D000093050000638403009305FFFF3387F5011B
:100D10006384E800678000008348480023280500BA
:100D200013F5D80F2302A80067800000130000000D
:100D3000130101FE232A910083240500232C810046
:100D40002328210123263101232E110023820400B0
:100D500023840400930770FC2384F4002388040098
:100D60002322B5001304050013890500930906002A
:100D7000930600001386050037D512139305000073
:100D8000EF201017B7028000637455029350F500EE
:100D9000130700F82386E40013F3F00F13557500D2
:100DA000238264009373F50F23807400238604006C
:100DB0002386340123043401A304040097050000B2
:100DC000938545D4232224018320C10123280400D4
:100DD00023260400232A0400232E0400232C0400CD
:100DE000232204022320B40203248101832441012D
:100DF000032901018329C10013010102678000005A
:100E0000130101FF23260100638C0522630A0622D9
:100E1000032505003386C5009307100303474501EA
:100E2000232601008326C1009372F70F63E2D70ADD
:100E30000323C10093031300232671000328C1007C
:100E400063E807098328C100138E18002326C10117
:100E5000832EC10063EED707032FC100930F1F003D
:100E60002326F1010327C10063E4E7068326C100BE
:100E700013831600232661008323C10063EA7704ED
:100E80000328C1009308180023261101032EC10076
:100E900063E0C705832EC100138F1E002326E101E6
:100EA000832FC10063E6F7030327C10093061700F1
:100EB0002326D1000323C10063EC67008323C10014
:100EC00013881300232601018328C100E3F217F7DA
:100ED00093F20202E38402F423260100032EC100F0
:100EE00063E2C70B832EC100138F1E002326E1018E
:100EF000832FC10063E8F7090327C1009306170099
:100F00002326D1000323C10063EE67068323C100BB
:100F100013881300232601018328C10063E4170707
:100F20008322C100138E12002326C101832EC1002B
:100F300063EAD705032FC100930F1F002326F10199
:100F40000327C10063E0E7048326C1001383160072
:100F5000232661008323C10063E677020328C100D2
:100F600093081800232611018322C10063EC570067
:100F7000032EC100930E1E002326D101032FC100B2
:100F8000E3F2E7F783CF05002300F50123260100F4
:100F90000327C10063E2E70A8326C100138316001A
:100FA000232661008323C10063E877080328C1007A
:100FB00093081800232611018322C10063EE57060F
:100FC000032EC100930E1E002326D101032FC10062
:100FD00063E4E707832FC10013871F002326E10086
:100FE0008326C10063EAD7040323C10093031300DF
:100FF000232671000328C10063E007058328C10090
:101000009382180023265100032EC10063E6C70314
:10101000832EC100138F1E002326E101832FC10000
:1010200063ECF7010327C100930617002326D100C4
:101030000323C100E3F267F693851500E390C5DE54
:10104000130101016780000013000000130000007D
:101050006388050E03C605006304060E832705009A
:10106000130101FF9386150003C747019372F70F21
:10107000A30751000343F100937303026396030A2D
:1010800003C547019375F50FA307B1000348F100AD
:1010900093780802639A080803CE4701937EFE0FF7
:1010A000A307D101034FF100937F0F02639E0F0648
:1010B00003C747019372F70FA30751000343F100E1
:1010C000937303026392030603C547019375F50FFB
:1010D000A307B1000348F10093780802639608045F
:1010E00003CE4701937EFE0FA307D101034FF1000A
:1010F000937F0F02639A0F0203C747019372F70FA2
:10110000A30751000343F10093730302639E03009E
:1011100003C547019375F50FA307B1000348F1001C
:1011200093780802E38208F4938616002380C700B0
:1011300003C6F6FFE31A06F21301010167800000FF
:10114000678000001300000013000000130000007F
:10115000630C0602638A0502032705009706000058
:101160009386469A2326B500834747002328C50067
:10117000232A05002320D50293E2270023025700EB
:10118000732340F16304030067800000B723000C61
:10119000171601001306066183A503003305C54039
:1011A0001338150093081000339E0801B36EBE007B
:1011B00023A0D3016780000013000000130000008B
:1011C00083270500034795008326050183C2470155
:1011D00033E3E200A304650093F3F20F6398060083
:1011E00013D5630013751500678000001305000018
:1011F00067800000130000001300000013000000CF
:101200009307050063800518630E06160327050083
:101210000345950083464701B3E2A600A384570027
:1012200013F31600630003169373360013050000D2
:10123000638C0308130810006380030793082000E1
:101240006386130303470700130510002380E5009E
:1012500003A7070003CE9700834E470133EFCE016B
:10126000A384E70193FF1E0063820F1283460700E9
:10127000B382A500130515002380D20003A7070041
:1012800003C397008343470133E86300A384070146
:1012900093F81300638C080E034E07003387A500F4
:1012A000130515002300C70103A7070083CE97008D
:1012B000034F4701B36FDF01A384F70193761F004B
:1012C0006386060C6306A60C83420700B383A50061
:1012D000130515002380530003A8070003CE9700D1
:1012E0003383A5000347480193080500B36EC70187
:1012F000A384D701137F1700630A0F08834F0800E8
:1013000013051500B382A5002300F30183A3070092
:1013100083C6970003C343013368D300A384070146
:10132000137E130063040E0603C703001385280011
:10133000B38EA5002380E20003AF070083CF9700A0
:1013400083424F01B3E3F201A384770093F61200C6
:10135000638E060203430F001385380023806E005E
:1013600003A7070083C89700034E470133681E0197
:10137000A3840701937E1E00638A0E00E316A6F481
:101380006780000013050000678000006780000090
:10139000678000001300000013000000130000002D
:1013A000F32740F163960702B726000C17170100D8
:1013B0001307473F03A60600B302E54013B312002C
:1013C0009303100033986300B368C80023A016018C
:1013D000370E0100930EFEFF638CD5010325050037
:1013E00093F5F500034F4500B36FBF002302F501ED
:1013F00067800000130000001300000013000000CD
:10140000638E05029307000C63EAC70203270500F9
:10141000232EB5008342870013F3F203B363C300A6
:1014200093F5F30F2304B7000346470093661600B5
:101430002302D700732840F163040800678000008E
:10144000B728000C971E0100938ECE3503AE08001E
:101450003305D541133F1500930F1000B397EF01EB
:1014600033E7C70123A0E8006780000013000000F5
:1014700063840502032705002320B5022326050007
:10148000834747002328050093E2270023025700E3
:10149000732340F16304030067800000B723000C4E
:1014A000971501009385053083A603003305B540E9
:1014B0001336150013081000B318C80033EED80017
:1014C00023A0C30167800000130000001300000088
:1014D00063800502032705002322B50283474700E6
:1014E00093E2870023025700732340F16304030053
:1014F00067800000B723000C971501009385852AAB
:1015000083A603003305B5401336150013081000F9
:10151000B318C80033EED80023A0C30167800000D1
:10152000638805126306061283270500834695002B
:1015300003C74701B362D700A30455001373070222
:1015400063080310930300011305060063F4C3004E
:101550001305000103C8050093081000238007014C
:1015600063FAC80E03CE1500930E20002380C70136
:1015700063F2CE0E03CF2500930F30002380E701E6
:1015800063FACF0C83C63500130740002380D700D1
:101590006372C70C83C245001303500023805700B9
:1015A000637AC30A83C35500130860002380770061
:1015B0006372C80A83C86500130E70002380170188
:1015C000637ACE0883CE7500130F80002380D70185
:1015D0006372CF0883CF8500930690002380F701C4
:1015E00063FAC60683C295001307A0002380570044
:1015F0006372C70603C3A5009303B000238067008E
:1016000063FAC30403C8B5009308C0002380070130
:1016100063F2C80403CEC500930ED0002380C70137
:1016200063FACE0203CFD500930FE0002380E701D9
:1016300063F2CF0283C6E5009302F0002380D70057
:1016400063FAC20083C5F5002380B70067800000FD
:101650001305000067800000130000001300000065
:10166000832705000347950083C24701A3040500B3
:1016700033E5E2001375E509678000001300000000
:101680008327050003C58701678000001300000061
:1016900003270500834795008342470133E3F200A7
:1016A000A304650013F50206678000001300000024
:1016B000032705008347C70093E20704230657006A
:1016C00067800000130000001300000013000000FA
:1016D000032705008347C70093F2F70B2306570043
:1016E0006780000000000000000000000000000013
:1016F000831E0500031E25000313450083186500A3
:101700001396EE009316EE001317E3009397E8008C
:10171000374800003306D641B386C64133076740D9
:10172000B387174133060601B38606013307070165
:10173000B38707011356F64093D6F6401357F74088
:1017400093D7F7402313F5002310C5002311D500CC
:101750002312E500832705000327450083A6050023
:10176000AB87E7682B97F7782320F5002322E50065
:1017700067800000130101FD232291022320210331
:10178000232C41012326110223248102232E31011F
:10179000232A510123286101232671012324810179
:1017A000232291012320A101130A050013880500BB
:1017B00013090600930405009306050013070000B3
:1017C00093080020937717001356770013553700BE
:1017D0009397870093151700B3E7C7001375C500EB
:1017E00013165700B3E7A70093F505031376060C0D
:1017F000B3E7B700B3E7C70093972700B307F80034
:1018000003D6070013071700131707012390C6001C
:1018100083D727001357070193864600239FF6FEC0
:10182000E31217FB371B0000130B0B80330B6A010D
:1018300013040A0093090000130C0004930B000822
:10184000930A000C8325C90013050400EFF05FEA3A
:101850008325C90013058400EFF09FE98325C900A3
:1018600013050401EFF0DFE88325C90013058401A7
:10187000EFF01FE88327040003278400DB87E79845
:101880008327040103278401DB97E798DBA73999B5
:101890005BB53999DBC539995BD63999DBE639995E
:1018A000832744000327C4002320A4002324B4007A
:1018B0002328C400232CD400DB87E7C083274401FE
:1018C0000327C401DB97E7B8DBA739A95BB65AA9A0
:1018D000DBC65AA95BD75AA9DBE75AA92322C40061
:1018E0002326D400232AE400232EF4001304040248
:1018F000E31A8BF493070A00130700009309000111
:10190000130F000293050003930E000493060006D4
:1019100013030009130900081306000C1304000543
:101920009303000A9308000F1308001293020007A4
:10193000930F000E1305001503AE070083AA0702DC
:101940005B0E5E7103AE070483AA07065B1E5E7121
:101950005B2EE7705B3DE770DB4CE7705B5CE7702C
:10196000DB6BE77003AE470083AA470223A0A70101
:1019700023A0970323A0870523A077075B0E5E991A
:1019800003AE470483AA47065B1E5EF15B2EE75851
:101990005BBDB558DBCCB5585BDCB558DBEBB55857
:1019A00003AE870083AA870223A2A70123A297037D
:1019B00023A2870523A277075B0E5EF103AE87049F
:1019C00083AA87065B1E5EE95B2EE7685BBDD6686F
:1019D000DBCCD6685BDCD668DBEBD66803AEC70031
:1019E00083AAC70223A4A70123A4970323A48705DE
:1019F00023A477075B0E5E5903AEC70483AAC7060C
:101A00005B1E5E695B2EE7305B3D6330DB4C633011
:101A10005B5C6330DB6B633003AE070183AA0703B3
:101A200023A6A70123A6970323A6870523A6770746
:101A30005B0E5EE903AE070583AA07075B1E5E9196
:101A40005B2EE7605B3DC660DB4CC6605B5CC660DE
:101A5000DB6BC66003AE470183AA470323A8A70137
:101A600023A8970323A8870523A877075B0E5E4169
:101A700003AE470583AA47075B1E5E395B2EE788E6
:101A80005BBD1889DBCC18895BDC1889DBEB188916
:101A900003AE870183AA870323AAA70123AA97037A
:101AA00023AA870523AA77075B0E5E6903AE870525
:101AB00083AA87075B1E5E615B2EE7805B3D088122
:101AC000DB4C08815B5C0881DB6B088103AEC701DE
:101AD00083AAC70323ACA70123AC970323AC8705D4
:101AE00023AC77075B0E5E2903AEC70583AAC70741
:101AF0005B1E5EF95B2EE7505B3CA550DB4BA550AF
:101B0000DB5AA5505B6EA55023AE870123AE770349
:101B100023AE570523AEC70793870708E39E67E107
:101B200013050000130E000893870400130700003C
:101B3000930500001306000083A6070003A807080A
:101B4000DB86066183A6071003A80718DB960659F3
:101B5000DB26A5705B3FE770DB4EE7705B53E770F9
:101B6000DB66E77023A0671023A0D71803A84700FF
:101B700083A8470823A0E70123A0D7099306C7003D
:101B8000130346005B08183103A8471083A84718C1
:101B9000138385005B1818315B28A5685BB3D66892
:101BA000DBC8D6685BD8D668DBE6D66823A26700B8
:101BB00023A2170923A2071123A2D7181306860010
:101BC000938505011307870193878700E316C6F7FE
:101BD00093840420E39A64F59307000093050000C2
:101BE0001306000093060000930E001803270A0056
:101BF00003250A205B07A76003270A4003250A6024
:101C00005B17A7585BA7D6785BBEF7785BC3F778FE
:101C1000DBD8F7785BE7F77823201A412320EA60C6
:101C200003254A0003284A202320CA0123206A20D2
:101C300013873700930816005B05058903254A4082
:101C400003284A60938825005B1505895BA5D6703B
:101C5000DB38E7705B48E7705B55E7705B67E77000
:101C600023221A0123220A212322AA402322EA60E6
:101C7000938767001306260093854500130A8A00A0
:101C8000E396D7F78320C102032481028324410213
:101C9000032901028329C101032A8101832A410109
:101CA000032B0101832BC100032C8100832C4100F5
:101CB000032D01001301010367800000130101F9E6
:101CC00023229106232E3105832407008329470010
:101CD00023267105938B060033883403232861057E
:101CE0002324810623202107232C4105232A510583
:101CF0002326110623248105232291052320A105F3
:101D0000338BCB0213182800232EB1039306100047
:101D1000130A0600930A0500138405003309050120
:101D2000131B2B006386D920338DC4022326910018
:101D3000930C8700939D2900130C050093840700E2
:101D40009305040013050C009387040013870C000F
:101D500093860B0013060D00330CBC01EFF01FF649
:101D600033046401E31E89FD938704008324C100CA
:101D7000130740006392E41E13181A009307100023
:101D800093860900B308480163F6371713931900C7
:101D900033033301139E3900131323001385090005
:101DA00013870A0093070000930300001306000046
:101DB00093824D00930F4E00130F430093050000D4
:101DC000930E10003309B701032B0700832B090082
:101DD000B304EE00330467005B0B7B6103AB0400CC
:101DE000832B04005B1B7B395BABB578DBBCF778DE
:101DF0005BCCF778DBDBF7785BEBF7782320970198
:101E00002320890123A07401232064013309570092
:101E1000032B4700832B09003306CA00B383030159
:101E2000B3871701B304F7013304E7015B0B7B6150
:101E300003AB0400832B04005B1B7B395BABB578E1
:101E4000DBBCF7785BCCF778DBDBF7785BEBF7781C
:101E5000232297012320890123A0740123206401F8
:101E60001305E5FF3306CA00B3037800B387F80013
:101E700013078700E3E8AEF49389E9FF93F71900AD
:101E800093D919006388070613871900B30707035E
:101E900013163700B38ACA003307170313951700C8
:101EA0001317170093962600B385DA003386D50002
:101EB00003A80A0083A80500B306D6005B081879BA
:101EC0008327060003A80600DB970751930700004D
:101ED000DBA7F7705B38E7705B45E770DB57E770AF
:101EE0005B67E77023A00A0123A0A5002320F6006A
:101EF00023A0E6008320C106032481068324410633
:101F0000032901068329C105032A8105832A410586
:101F1000032B0105832BC104032C8104832C410472
:101F2000032D0104832DC103130101076780000005
:101F3000130705008356040013074700231ED7FE2E
:101F40008356240033046401231FD7FEE314E9FE03
:101F500013074000E386E470130740006342971EB6
:101F6000130720006380E472130730006390E45E7F
:101F7000931E2A003387D90303A8C70093071000D4
:101F8000139629003307E80003132700631EFA7E27
:101F90003387CA0037350000370E01003306C7000B
:101FA000930808001305A5AAB7450000130EFEFF0D
:101FB00083960A0083972A00B386A602B387A702F6
:101FC000B386B60093D6F6402390DA00B387B70005
:101FD00093D7F7402391FA00831607008317270051
:101FE000B386A602B387A702B386B60093D6F6409F
:101FF0002310D700B387B70093D7F7402311F7001A
:10200000831E060083162600B38EAE02B386A60298
:10201000B38EBE0093DEFE402310D601B386B60019
:1020200093D6F6402311D60083572700035F28007C
:1020300083520700835F080093970701131F0F0166
:10204000B3E75700336FFF018BA7E70103DF2800D9
:1020500083DF0800B3FECE01131F0F019396060124
:10206000B3E6D601B36EFF018BA6D6010B8FD70066
:102070008B97D70083D60A00931E0F0193DE0E4183
:1020800093DE1E40B386D6412310D70083D62A00A4
:10209000935E1F4113084800B386D6412311D70031
:1020A00083DE2A0083D60A0093888800939E0E015F
:1020B000B3EEDE008B8EEE0193D60741B386660247
:1020C0009397070193D7074113DF0E012390DA019D
:1020D0002391EA01835E07001306460013074700B9
:1020E0009389F9FFB3876702B386B60093D6F640AB
:1020F0009396060193D60601B38ED601231ED6FF12
:10210000835EE7FF938A4A00B387B70093D7F7400F
:102110009397070193D70701B38EFE40231FD6FF85
:10212000835EC7FF035FE7FFB386DE40B387E70147
:10213000231ED7FE231FF7FEE39C09E66FF09FDB0B
:10214000130750006394E44033073A0303ABC7001E
:1021500013942900338F8A00B30E8F00338E8E00C4
:1021600033048E00931727003307FB00B307F700F3
:10217000031D070083142700039707008397270098
:102180002326E1002328F100E35630D793071000FF
:102190006316FA7A37070100232E3101032A010161
:1021A0008329C100B72300001307F7FF930C0B002E
:1021B000130C0B00930B0B00232A010093839399BC
:1021C000B7470000232CE10083960A0003972A00FA
:1021D000B386760233077702B386F60093D6F640CD
:1021E0002390DA003307F7001357F7402391EA00F2
:1021F00083160F0003172F00B3867602330777028A
:10220000B386F60093D6F6402310DF003307F700BD
:102210001357F7402311EF0083960E0003972E000B
:10222000B386760233077702B386F60093D6F6407C
:102230002390DE003307F7001357F7402391EE0099
:1022400083160E0003172E00B3867602330777023B
:10225000B386F60093D6F6402310DE003307F7006E
:102260001357F7402311EE008316040003172400D0
:10227000B386760233077702B386F60093D6F6402C
:102280002310D4003307F7001357F7402311E4005D
:10229000835D2F0003562B0003550F0083550B0061
:1022A000939D0D0113160601B3EDAD003366B60024
:1022B0008BADCD0083D82E0003D62B0003D50E00A6
:1022C00083D50B009398080113160601B3E8A80004
:1022D0003366B6008BA8C80083552E0003562C0029
:1022E00003580E0003550C009395050113160601C3
:1022F000B3E505013366A6008BA5C50003D62C0007
:102300000328810103D50C001317070133F80601D8
:102310009316060133670701B3E6A6000B27D70023
:102320000B86ED008B9DED000B88B8008B98B800F4
:1023300003D52A0003D90A0093160501B3E6260146
:102340008B86C6008B8606011313060193120801C3
:10235000939F080193D80841232811011353034187
:1023600093D8060193D202411356064113580841EF
:1023700013970D0193DD0D412326B101B305A6038B
:102380002390DA0023911A011357074193DF0F417D
:10239000B3083803B385F50093D5F540B38632030F
:1023A000B388F80093D8F840B3851501B305B5009C
:1023B00093950501B30DA303B386F60093D6F640BB
:1023C000B38DFD0093DDFD40B388E402B386B60112
:1023D000B306D9009396060193D60601B3E5D5005E
:1023E0008326C100B30DFA03B388F80093D8F840F0
:1023F000B38DFD0093DDFD40B388B801832D01014D
:10240000B3869602B308104193980801B30DBA033E
:10241000B386F60093D6F640B38DFD0093DDFD4004
:10242000B386B6019396060193D60601B3E6D800AB
:102430008B98D50093DD080123101F012311BF01E4
:102440008B86D5003306360393D506012310D400BE
:102450002311B40083280101832DC1003308A80390
:102460003306F6009356F640330333033308F8007F
:102470001356F840B386C600B306D50093960601FE
:10248000B382A2033303F3001356F340B305EA0209
:102490003387F2001357F7403306E6003307C900CD
:1024A0001317070113570701B3E6E6003386F40359
:1024B000B385F50093D5F5403306F6001356F64084
:1024C000338714033386C54013160601B3854D03C5
:1024D0003307F7001357F740B385F50093D5F54060
:1024E0003307B74013170701135707013366E60098
:1024F0000B87C600935507012390EE002391BE0081
:102500008B96C60013D706012311EE000327410165
:102510002310DE008326C10113071700232AE100E0
:10252000938A4A00130F4F00938E4E00130E4E00F5
:1025300013044400130B4B00938B8B00130CCC0043
:10254000938C0C01E392E6C86FF0DF9A139B240092
:1025500013050B0003A4070003A9C700EF10406692
:10256000E30A05106354301F93071000639CF97A47
:10257000635E901C378800001308F8FF3348980208
:10258000B708010013830A0093050500330EAB0062
:1025900093860A00374600009388F8FF8397060069
:1025A000039726009385450093864600B38707036B
:1025B00033070703B387C70093D7F7409397070103
:1025C00093D70701B3F717013307C7001357F74035
:1025D00013170701B3E7E70023AEF5FEE390C5FD4F
:1025E000035F0500835E2500930710002390EA0136
:1025F0002391DA01638CF41493080000130E000099
:10260000930F450013880F0093850900930600007F
:10261000B386160163C48600B386864013962600EF
:102620003306C9000357260083D72A0083520600C9
:1026300083D30A00939707011317070103260800A5
:10264000B3E77700336757008B37E60013D70701EE
:102650002390FA002391EA0093851500130848009F
:10266000E398B4FA130E1E0013034300B388480125
:10267000638EC40D930A03002310E3012311D301D9
:102680006FF05FF883A5C70093962900B386DA0040
:10269000131A2A003746000003980A0003952A00FF
:1026A0001317E8009317E50033070741B387A740E6
:1026B0003307C700B387C7001357F74093D7F740D6
:1026C0002390EA002391FA00039526000398060060
:1026D0009317E5001317E80033070741B387A740B6
:1026E0003307C700B387C7001357F74093D7F740A6
:1026F0002390E6002391F60083A70A0003A70600B3
:1027000003A50500AB87E7502B97F77823A0FA00C5
:1027100023A0E6009389F9FFB3854501938646001F
:10272000938A4A00E39A09F66FF0CFFC0327C100B1
:1027300083280101032841019388180093874700EB
:102740003303C301631017631305080003248106D4
:102750008320C10683244106032901068329C1057C
:10276000032A8105832A4105032B0105832BC1041C
:10277000032C8104832C4104032D0104832DC10308
:10278000130101076F108044B386CA00373500007B
:10279000370E0100131A3A003386C600930808006A
:1027A0001305A5AAB7450000130EFEFF03970A0004
:1027B00083972A003307A702B387A7023307B7001E
:1027C0001357F7402390EA00B387B70093D7F74039
:1027D0002391FA0003970600839726003307A70288
:1027E000B387A7023307B7001357F7402390E600DB
:1027F000B387B70093D7F7402391F600031706007D
:10280000031F26003307A702330FAF023307B700B9
:102810001357F7402310E600330FBF00135FFF404C
:102820002311E60183D72600835F280083D30600A7
:102830008352080093970701939F0F01B3E7770036
:10284000B3EF5F008BA7F70183DF280083D2080076
:102850003377C701131F0F01939F0F013367E70100
:1028600033EF5F000B27E7018B8FE7008B97E700C3
:1028700003D70A00139F0F01135F0F41135F1F401F
:102880003307E7412390E60003D72A0013DF1F41F7
:102890003308D8013307E7412391E60003DF2A001C
:1028A00003D70A00B3884801131F0F01336FEF00ED
:1028B0000B0FFF0113D707413307670293970701F7
:1028C00093D70741935F0F012390EA012391FA0107
:1028D00003DF060013064600938646009389F9FF3E
:1028E000B38767023307B7001357F7401317070181
:1028F00013570701330FE701231EE6FF03DFE6FF4F
:10290000938A4A00B387B70093D7F740939707019C
:1029100093D70701330FFF40231FE6FF03DFC6FFF6
:1029200083DFE6FF3307EF40B387F701239EE6FE20
:10293000239FF6FEE39C09E66FF0CFDB13172A0016
:1029400093171A00B3874701232CE10013173A00AD
:1029500093972700232EE100370701002322F1027D
:10296000B722000093174A001307F7FF2320F10254
:10297000130C0B00930C0B00930D0B00232A01008A
:1029800093829299B74700002324E1022326310362
:1029900083960A0003972A00B3865602330757022C
:1029A000B386F60093D6F6402390DA003307F7009B
:1029B0001357F7402391EA0083160F0003172F00E7
:1029C000B386560233075702B386F60093D6F64015
:1029D0002310DF003307F7001357F7402311EF00F0
:1029E00083960E0003972E00B386560233075702D4
:1029F000B386F60093D6F6402390DE003307F70047
:102A00001357F7402391EE0083160E0003172E0094
:102A1000B386560233075702B386F60093D6F640C4
:102A20002310DE003307F7001357F7402311EE00A1
:102A30008315040003162400B3855502330656029D
:102A4000B385F50093D5F5402310B4003306F600A6
:102A50001356F6402311C40083562F0003572B0052
:102A600003580F0003550B00939606011317070137
:102A7000B3E606013367A7008BA6E60003D72E0056
:102A800003D52D0083D80E0003D80D0013170701BE
:102A90001315050133671701336505010B27A700DF
:102AA00003552E0083D82C0003580E0003D30C00CE
:102AB000131505019398080133650501B3E8680013
:102AC0000B28150103552C000323810283580C00A9
:102AD00013160601B3F565001315050133E6C500AD
:102AE000336515010B26A6000B85C6008B96C60024
:102AF0000B0307010B17070103DA2A0083D80A002A
:102B000093150A01B3E515018B85A5008B8565003A
:102B100093DF05012391FA01832FC100931305016F
:102B20009319030113550541135303413308A503BA
:102B300093D3034193D909412390BA001396060118
:102B400013190701135606411359094193D606413B
:102B500013570741B30FF3033308F8001358F84035
:102B6000B38FFF0093DFFF403308F801832FC100CC
:102B7000B385A30333080A01931B0801B38FF9033C
:102B8000B385F50013D8F540B38FFF0093DFFF4006
:102B90003308F80133880801131808011358080195
:102BA00033E80B01832B0101B3059602B30B7903C4
:102BB000B385F50093DFF540B38BFB0093DBFB405F
:102BC000B38F7F01832B0101B3859602B30FF041D0
:102BD000939F0F01B30B7703B385F50093D5F540B1
:102BE000B38BFB0093DBFB40B38575019395050127
:102BF00093D50501B3E5BF008B1FB80093DB0F0130
:102C00002310FF0123117F018B05B800832FC10022
:102C10003303A30313D805012310B40023110401C7
:102C20003305F5033303F3003305F500B383F303F2
:102C30009355F5401355F34003230101B385A500D7
:102C4000B305BA0093950501B389A903B383F300D3
:102C500013D5F34033079702B389F90013D8F9402D
:102C6000330505013385A80013150501135505012A
:102C7000B3E5A500B38666023307F7001357F740A4
:102C800033066602B386F60093D6F6403307D74084
:102C90001317070113570701330999023306F6008A
:102CA0001356F6403309F9001355F9403306A64090
:102CB000131606013366E6000B87C500935607011D
:102CC0002390EE002391DE008B95C50083268101C1
:102CD00013D705012311EE00330BDB008326C1015E
:102CE000032741012310BE00B38DDD00832641027E
:102CF00013071700232AE100B38CDC0083260102AE
:102D0000938A4A00130F4F00330CDC008326C10264
:102D1000938E4E00130E4E0013044400E39AE6C651
:102D20006FF04F9D330C3A0337870000B703010063
:102D3000930DF7FF93870A00939229003306AB00A7
:102D40001303000093080000B74F00009383F3FFC4
:102D5000130D1000930B450013870900130805009D
:102D6000130E0A00E35A909C33CF9D02930E080085
:102D7000138507008316050083152500938E4E00EA
:102D800033055500B386E603B385E503B386F60144
:102D900093D6F640B3F67600B385F50193D5F540AA
:102DA00093950501B3E6B60023AEDEFEE394CEFCB8
:102DB000835A0800035A28001385070023905701FF
:102DC00023914701E38AA49793090300938E070098
:102DD000130F00002326E10023281101232A0101FB
:102DE00093880B001308100093050000B38535018C
:102DF00063C48500B3858540139B2500330B6901AF
:102E000083562B0003572500835C0500035B0B00F2
:102E1000131707019396060133679701B3E666011E
:102E200083AC08000BB7DC00935607012310E500C4
:102E30002311D5001308180093884800E39804FB79
:102E4000130F1F00B38E5E00B3898901E380E48F06
:102E500013850E0023905E0123914E016FF05FF801
:102E600093061000930700001307000013050000ED
:102E70006FF04F83170401000324840083270400AC
:102E8000130670019305100083A6C70017F5000014
:102E90001305450AEF10502A8327040093051000FC
:102EA0001306900183A6C70017F500001305050A55
:102EB000EF10902883270400032481068320C10695
:102EC00083244106032901068329C105032A8105BC
:102ED000832A4105032B0105832BC104032C8104A4
:102EE000832C4104032D0104832DC10383A5C70056
:102EF0001305A000130101076F101005130101FE57
:102F0000232C810093073500232E110013040500A4
:102F100013952700638006066302060483A7060054
:102F200063EEA70223A0A600130506008320C101BB
:102F3000232085009707010083A747F4032481011C
:102F40002326F5009707010083A7C7F32322B500C6
:102F50002324F500130101026780000023A0A600CE
:102F6000130500008320C101032481011301010224
:102F7000678000002326B100EF0090448325C10044
:102F8000E31605FA130500006FF0DFFD03260500C8
:102F90006350C0020327C500930700008326070083
:102FA0000BD0D7009387170013074700E318F6FEEE
:102FB00093073000130700000BE0E7006780000074
:102FC000130101FD232481022322910223202103E6
:102FD00023261102232E3101232C41019384050065
:102FE00013090600130405006386C50403270500C2
:102FF000930700206316F70093071000638CF60A0E
:103000000327840093070400032481028320C10264
:103010008329C101032A8101938504001305090056
:103020008324410203290102130610001301010346
:103030006FE0DFC86384050A032A05002326D10058
:1030400013152A00EF00D0378326C100930905002D
:1030500063040510930700206316FA00930710001D
:103060006384F60E03278400930704001306100000
:103070009385040013850900EFE05FC40326040074
:10308000938509001305090013162600EF20C0568A
:10309000032481028320C102832441020329010207
:1030A000032A8101138509008329C101130101034A
:1030B0006F00D031032481028320C10283244102A6
:1030C0008329C101032A81011306050013050900A4
:1030D00003290102130101036FE0CFE91704010086
:1030E000032404DA832704001306700193051000FB
:1030F00083A6C70017F50000130505E7EF10D003FE
:1031000083270400930510001306100183A6C7004F
:1031100017F500001305C5E6EF1010028327040021
:10312000032481028320C102832441020329010276
:103130008329C101032A810183A5C7001305A000CB
:10314000130101036F10406013060400930509008A
:10315000EFE04FE26FF09FF217040100032444D226
:1031600083270400130670019305100083A6C7008F
:1031700017F50000130505E2EF10007C832704001B
:10318000930510001306800183A6C70017F5000001
:103190001305C5E16FF05FF8930610006FF05FE272
:1031A00067800000937715009306300013075000E6
:1031B00093051000639A07049307050013D6F701DF
:1031C000B307F60093D7174013F61700E30806FE7F
:1031D00033E6D702631E0600B3C7D70233E6D70231
:1031E000E30C06FE33E6E70263180600B3C7E70206
:1031F00033E6E702E30C06FE63DCF5001305150079
:1032000093771500E38A07FA930705006FF01FFD17
:10321000678000001308000063C6051263DC060027
:10322000B337C000B306D0401348F8FFB386F6406A
:103230003306C040930806001307050013830500FA
:10324000639A060E63F4C516B70701006364F6229D
:10325000B7070001930680016374F600930600012E
:10326000B7270180335ED600938747FCB387C70139
:1032700083C70700130E0002B387D700B306FE40D2
:10328000630CFE003393D500B357F500B318D60096
:1032900033E367003317D50013D608013355C30253
:1032A0009396080193D60601935707013373C3021F
:1032B000B385A60213130301B3E7670063FCB700ED
:1032C000B387F8001303F5FF63E4170163E6B74023
:1032D00013050300B387B740B3D5C702131707011F
:1032E00013570701B3F7C702B386B60293970701D6
:1032F0003367F700637ED7003387E8009387F5FFD5
:10330000636617019385E5FF6364D7009385070023
:10331000131505013365B50093050000630A080025
:10332000B337A000B305B040B385F5403305A040E6
:103330006780000063F4D5029305000013050000C8
:103340006FF0DFFDB337A000B305B040B385F540A3
:103350003305A0401308F0FF6FF05FECB7070100E2
:1033600063E8F61EB70700019308800163F4F600D6
:1033700093080001B727018033D71601938747FCD4
:10338000B387E70003C7070093070002330717015D
:10339000B388E7406396E71C63E4B6303335C50075
:1033A00013351500930500006FF05FF7630C060CF2
:1033B000B7070100637CF62C133306101333130098
:1033C00013133300B3566600B7270180938747FC79
:1033D000B387D70083C6070093070002B386660051
:1033E000B38ED7406394D70CB386C5401353060100
:1033F00013160601135606019305100033D5660215
:1034000093570701B3F66602330EC5029396060181
:10341000B3E7D70063FCC701B387F8009306F5FF55
:1034200063E4170163E4C72B13850600B387C74124
:10343000B3D667021317070113570701B3F76702E3
:103440003386C602939707013367F700637EC70090
:103450003387E8009387F6FF636617019386E6FFDC
:103460006364C70093860700131505013365D50013
:103470006FF0DFEA9336061093B616009396360087
:103480006FF01FDEB727018093060000938747FC8B
:10349000B387D70083C60700130300009307000219
:1034A000B3866600B38ED740E380D7F4B318D60155
:1034B00033DED50013D30801B3576E02139608010B
:1034C00013560601B356D5003317D501B395D50170
:1034D000B3E6B60093D50601337E6E023305F602DD
:1034E000131E0E01B3E5C50163FEA500B385B80048
:1034F000138EF7FF63E4151D63F2A51C9387E7FFA6
:10350000B3851501B385A54033D5650293960601B1
:1035100093D60601B3F56502330EA6029395050115
:10352000B3E6B60063FEC601B386D8009305F5FF87
:1035300063EE161763FCC6171305E5FFB386160185
:1035400093950701B386C641B3E5A5006FF01FEB65
:1035500093B8061093B81800939838006FF09FE165
:10356000B35EE600B3961601B3EEDE0033D3E5009A
:1035700013DF0E01B357E303139E0E01B39515013C
:10358000135E0E013357E5003367B700935607010A
:10359000331616013373E303B305FE02131303015D
:1035A000B3E6660063FEB600B386DE001383F7FF62
:1035B00063EAD61163F8B6109387E7FFB386D601A6
:1035C000B386B640B3D5E6031317070113570701B7
:1035D000B3F6E6033303BE02939606013367D700C2
:1035E000637E67003387EE009386F5FF6364D70D33
:1035F0006372670C9385E5FF3307D7019397070143
:10360000370F0100B3E7B7009306FFFFB3F5D7000C
:1036100013DE0701B376D60013560601B38ED5022A
:1036200033076740B306DE0213D30E01B385C5022C
:10363000B385D500B305B300330ECE0263F4D500D5
:10364000330EEE0193D60501B386C601636AD70235
:103650006308D70013850700930500006FF01FCCA7
:10366000B70601009386F6FF33F7D500131707015D
:10367000B3FEDE00331515013307D701E37CE5FC0B
:103680001385F7FF930500006FF05FC9B7070001CE
:10369000637AF60493560601130300016FF0DFD23C
:1036A00093050000130510006FF05FC71385050038
:1036B0006FF01FE9938506006FF05FF493070E002B
:1036C0006FF05FE4930703006FF09FEF1305E5FFD2
:1036D000B38717016FF09FD51305E5FFB387170177
:1036E0006FF05FBF93568601130380016FF0DFCD4B
:1036F0001308060093080500138705006390060E63
:1037000063FEC512B7070100636EF61EB70700011E
:10371000930680016374F60093060001B7270180C9
:103720003353D600938747FCB387670083C70700EE
:1037300013030002B387D700B306F340630CF30012
:103740003397D500B357F5003318D60033E7E700B9
:10375000B318D500135608013355C7029316080154
:1037600093D6060193D708013377C702B385A60223
:1037700013170701B3E7E70063FCB700B307F800CE
:103780001307F5FF63E4070163E0B73E1305070085
:10379000B387B74033D7C7029398080193D808017D
:1037A000B3F7C702B386E60293970701B3E8F800C0
:1037B00063FED800B30818019307F7FF63E608011A
:1037C0001307E7FF63E4D80013870700131505010B
:1037D0003365E500930500006780000063F8D500BD
:1037E000930500001305000067800000B707010083
:1037F00063E8F61EB70700011308800163F4F600C2
:1038000013080001B727018033D70601938747FCCF
:10381000B387E70003C707009307000233070701D8
:103820003388E7406396E71C63E4B6303335C50060
:10383000133515009305000067800000630C060C2B
:10384000B7070100637CF62C1337061013371700F7
:1038500013173700B356E600B7270180938747FC5C
:10386000B387D70083C7070093060002B387E7003A
:10387000B38EF6406394F60CB387C54093560601A9
:1038800013160601135606019305100033D5D7020F
:1038900013D70801B3F7D7023303C5029397070183
:1038A000B367F70063FC6700B307F8001307F5FF81
:1038B00063E4070163E4672A13050700B3876740E1
:1038C00033D7D7029398080193D80801B3F7D702EA
:1038D0003306C70293970701B3E8F80063FEC800F8
:1038E000B30818019307F7FF63E608011307E7FF22
:1038F00063E4C80013870700131505013365E5006D
:10390000678000009336061093B616009396360033
:103910006FF0DFE0B727018093060000938747FC34
:10392000B387D70083C70700130700009306000280
:10393000B387E700B38EF640E380F6F43318D60180
:1039400033D3F50093560801335ED30213160801F2
:10395000B395D50113560601B357F500B3E7B70089
:1039600013D70701B318D5013373D302B305C603C8
:103970001313030133676700637EB7003307E80062
:103980001305FEFF6364071D6372B71C130EEEFF81
:10399000330707013307B7403355D7029397070121
:1039A00093D707013377D7023303A6021317070112
:1039B000B3E7E70063FE6700B307F8001307F5FFFE
:1039C00063EE071763FC67161305E5FFB38707016E
:1039D00093150E01B3876740B3E5A5006FF01FEBA9
:1039E00013B8061013381800131838006FF09FE151
:1039F000335EE600B3960601336EDE00B3D8E50011
:103A0000935E0E01B3D7D80313130E01B3950501CE
:103A1000135303013357E5003367B700935607018B
:103A200033160601B3F8D803B305F30293980801DF
:103A3000B3E6160163FEB600B306DE009388F7FF17
:103A400063EAC61163F8B6109387E7FFB386C60131
:103A5000B386B640B3D5D603131707011357070132
:103A6000B3F6D603B308B302939606013367D700C3
:103A7000637E17013307EE009386F5FF6364C70D7D
:103A80006372170D9385E5FF3307C701939707010D
:103A9000B70E0100B3E7B7009386FEFFB3F5D7007A
:103AA00013D30701B376D60013560601338ED50221
:103AB00033071741B306D30293580E01B385C502ED
:103AC000B385D500B385B8003303C30263F4D500D2
:103AD0003303D30193D60501B3866600636AD70228
:103AE0006308D70013850700930500006780000076
:103AF000B70601009386F6FF33F7D50013170701C9
:103B0000337EDE00331505013307C701E37CE5FC96
:103B10001385F7FF9305000067800000B7070001D9
:103B2000637AF60493560601130700016FF0DFD2A3
:103B300093050000130510006780000013050700BF
:103B40006FF01FE9938506006FF05FF4130E050018
:103B50006FF05FE4938708006FF09FEF1305E5FFB8
:103B6000B38707016FF09FD51305E5FFB387070102
:103B70006FF01FC293568601130780016FF0DFCDEF
:103B800093050500930600001306000013050000CE
:103B90006F109049130101FF930500002324810059
:103BA0002326110013040500EF10905183A781F51F
:103BB00063840700E780070013050400EFC05FB0CF
:103BC0009305050003A541F46F000001930505006E
:103BD00003A541F46F109075130101FD232E3101EF
:103BE0002326110223248102232291022320210370
:103BF0009387B50013076001930905006360F70818
:103C00009307000163E0B720EF000078930780017D
:103C1000930520009304000113898182B307F90002
:103C200003A44700138787FF6300E434832744001D
:103C30008326C4000326840093F7C7FFB307F4006C
:103C400003A747002326D60023A4C6001367170046
:103C50001385090023A2E700EF00407313058400D9
:103C60008320C1020324810283244102032901022B
:103C70008329C101130101036780000093F487FFCA
:103C800063C2071863E0B418EF0000709307701F59
:103C900063F6973E93D79400638E07161307400090
:103CA000636CF73293D76400938597031388870377
:103CB00013963500138981823306C9000324460018
:103CC000130686FF630886021305F0006F004001AB
:103CD0008326C40063560728630ED60013840600AB
:103CE0008327440093F7C7FF33879740E352E5FEED
:103CF000930508000324090193088900630E142525
:103D0000832744009306F00093F7C7FF338797405B
:103D100063CCE636232A190123281901635007349E
:103D20001307F01F032549006368F72413F787FF83
:103D3000130787003307E9008326070013D65700CF
:103D400093071000B397C7003365F500930787FF0B
:103D50002326F4002324D4002322A9002320870053
:103D600023A6860093D72540130610003316F600CD
:103D7000636AC50AB377A600639407021316160098
:103D800093F5C5FFB377A60093854500639A0700B6
:103D900013161600B377A60093854500E38A07FE45
:103DA0001308F00013933500330369001305030073
:103DB0008327C500138E05006302F52403A747007F
:103DC0001384070083A7C7001377C7FFB306974084
:103DD0006342D824E3C206FE3307E400832647008B
:103DE000032684001385090093E616002322D700DA
:103DF0002326F60023A4C700EF00405913058400D2
:103E00006FF01FE69307C00023A0F9001305000020
:103E10006FF01FE513060020930500041308F0035C
:103E20006FF05FE9032489002328610183274400A0
:103E300013FBC7FF63689B0033079B409307F000A9
:103E400063CAE70C23229101232A510103A7C1F37E
:103E500083AA41F5232C4101232671019307F0FF2A
:103E6000330A6401B38A54016306F73CB7170000B4
:103E70009387F700B38AFA00B7F7FFFFB3FAFA00A7
:103E800093850A0013850900EF10804D9307F0FF1A
:103E9000930B0500630AF54423248101636E4523D7
:103EA000138C81F683250C00B385BA002320BC0057
:103EB000138705006316AA2A931745016392072A00
:103EC000832B8900B3075B0193E7170023A2FB0054
:103ED00083A601F563F4B60023A8B1F483A6C1F468
:103EE00063F4B60023A6B1F4032C810013840B0005
:103EF00093F7C7FF3387974063EA97389307F0003B
:103F000063D6E738032A8101832A4101832BC1004C
:103F1000832C410093E714002322F400B30494009F
:103F200023249900136717001385090023A2E400D6
:103F3000EF00C0458320C1021305840003248102E1
:103F4000032B010183244102032901028329C101BA
:103F50001301010367800000032549006FF09FE013
:103F6000032684006FF09FCD03A4C700938525002E
:103F7000E38287D86FF09FCB13D79700930640005A
:103F800063F2E6149306400163E4E6321306C705C4
:103F90009306B705131636003306C900032706003B
:103FA000130686FF6318E6006F0040290327870089
:103FB0006308E6008326470093F6C6FFE3E8D7FED2
:103FC0000326C7002326C4002324E40023248600FC
:103FD000232687006FF01FD9130740016378F7107D
:103FE000130740056364F72E93D7C4009385F70643
:103FF0001388E706139635006FF0DFCB130E1E0013
:1040000093773E0013058500638007108327C50062
:104010006FF09FDA0326840093E514002322B40096
:104020002326F60023A4C700B3049400232A990092
:104030002328990093E7160023A6140123A4140152
:1040400023A2F4003307E400138509002320D700DE
:10405000EF00C033130584006FF09FC0B307F40076
:1040600003A74700138509001367170023A2E70081
:10407000EF00C031130584006FF09FBE93D534006C
:10408000938784006FF05FB993E614002322D40075
:10409000B3049400232A99002328990093661700FB
:1040A00023A6140123A4140123A2D400B307F4000F
:1040B0001385090023A0E700EF00402D13058400BD
:1040C0006FF01FBA13D76700130697039306870391
:1040D000131636006FF05FEC630C2407032489008D
:1040E000032C8100832744006FF09FE09385C70570
:1040F0001388B705139635006FF0DFBB8327830065
:104100009385F5FF639E672693F73500130383FFBE
:10411000E39607FE032749009347F6FFB3F7E7004E
:104120002322F90013161600E3EEC7CEE30C06CEE9
:104130003377F600631A0700131616003377F6007C
:10414000130E4E00E30A07FE93050E006FF09FC5A5
:10415000138C81F603270C003387EA002320EC0040
:1041600083A6C1F39307F0FF6386F618B3874B412C
:10417000B387E7002320FC0093FC7B00638C0C0CCE
:10418000B38B9B41B717000093878700938B8B00FD
:10419000B3859741B38A5B01B3855541939545013A
:1041A00013DA450193050A0013850900EF10401B3F
:1041B0009307F0FF6300F51833057541B30A450115
:1041C00003270C002324790193E71A00B305EA00C2
:1041D0002320BC0023A2FB00E30C24CF9306F000B5
:1041E00063F0660B0327440093074BFF93F787FFA9
:1041F000137717003367F7002322E40013065000FB
:104200003307F4002322C7002324C70063E6F60027
:1042100083A74B006FF0DFCB930584001385090063
:10422000EF10D010832B890083250C0083A74B004F
:104230006FF01FCA938A0A016FF09FC493D626407D
:1042400093071000B397D7003365F5002322A90028
:104250006FF05FD7B3855B01B305B040939545011F
:1042600013DA450193050A0013850900EF10400F8A
:104270009307F0FFE312F5F4130A00006FF05FF408
:10428000032C81009307100023A2FB001385090073
:10429000EF00C00F13050000032A8101832A4101AA
:1042A000032B0101832BC100832C41006FF05F9B26
:1042B0009306400563E4E60413D7C7001306F70628
:1042C0009306E706131636006FF01FCD130740154F
:1042D0006364F70493D7F4009385870713887707FF
:1042E000139635006FF01F9D032489008327440037
:1042F0006FF01FC023AE71F36FF01FE893064015F7
:1043000063E4E60413D7F7001306870793067707DD
:10431000131636006FF05FC8130740556364F70447
:1043200093D724019385D7071388C70713963500C1
:104330006FF05F98938C8CFFB38A9A01B38A7A41AD
:10434000130A00006FF0DFE79306405563E4E602CE
:1043500013D727011306D7079306C707131636008E
:104360006FF09FC31306803F9305F0071308E00723
:104370006FF05F941306803F9306E0076FF0DFC194
:10438000832749006FF01FDA678000006780000014
:104390001305000067800000B7950080138601C3F5
:1043A0009385C5F0138501C46F000041130101FF1F
:1043B0008325450023248100232291002326110018
:1043C000138401F99304050063848500EF401034E1
:1043D00083A58400930784066386F5001385040093
:1043E000EF40D03283A5C4001304040D638E850012
:1043F000032481008320C10013850400832441002D
:10440000130101016F4090308320C100032481001B
:10441000832441001301010167800000130500009F
:1044200067800000130101FE232C8100B747008044
:10443000138401F993878739232E1100232A9100D1
:1044400023282101232631012324410123ACF1F447
:104450001306800093074000930500001305C40570
:104460002326F40023200400232204002324040034
:104470002322040623280400232A0400232C0400FA
:10448000EF10C009B7070100375A0080B759008004
:1044900037590080B7540080130A4ACA938989D0DB
:1044A000130909D9938484E0938797001306800049
:1044B000930500001305440C2320440323223403F6
:1044C0002324240323269402232AF406232E840083
:1044D0002324040623260406232804062326040C8A
:1044E000232C0406232E040623200408EF100003C7
:1044F000B707020013078406938727011305C41228
:104500001306800093050000232444092326340960
:1045100023282409232A9408232EF40C2322E408B8
:104520002328040C232A040C232C040C232A041211
:104530002320040E2322040E2324040EEF00107EF9
:104540009307040D2328440F232A340F232C240F10
:10455000232E940E8320C1012326F40E032481010F
:1045600083244101032901018329C100032A810019
:10457000130101026780000083A781F5130101FE8A
:1045800023263101232E1100232C8100232A9100A0
:1045900023282101930905006386070E138901C3AF
:1045A0009304F0FF83274900032489009387F7FFD2
:1045B00063D807006F00000813048406638C970615
:1045C0000317C4009387F7FFE31807FEB707FFFF41
:1045D000938717002326F4002322040623200400D7
:1045E000232404002322040023280400232A040097
:1045F000232C040013068000930500001305C40556
:10460000EF00D07123280402232A04022322040489
:10461000232404048320C101130504000324810121
:1046200083244101032901018329C10013010102EF
:1046300067800000032409006306040013090400D6
:104640006FF05FF69305C01A13850900EFF0CFD81D
:1046500013040500630C05021305C5009307400011
:10466000232004002322F4002324A4001306001AAC
:1046700093050000EF00906A2320890013090400CD
:104680006FF05FF2EFF01FDA6FF05FF123200900A7
:104690009307C00023A0F9006FF0DFF783274503DD
:1046A000638407006780000003A781F5B747008097
:1046B0009387C73A232AF502E31607FE6FF09FD6C9
:1046C0006780000067800000B7450080138601C343
:1046D00093850539130500006F00000EB745008073
:1046E000138601C39385C541130500006F00C00CFC
:1046F000130101FE232C8100232E11001304050059
:104700006306050083274503638C07001305040037
:10471000032481018320C101130101026F0080374E
:104720002326C1002324B100EFF05FF71305040036
:10473000032481010326C100832581008320C10158
:10474000130101026F000035130101FE232A9100BD
:1047500083A441F4232C8100232E110013040500AF
:10476000138605006386040083A744036380070261
:1047700093050400032481018320C10113850400F3
:1047800083244101130101026F00C030138504002E
:104790002326B100EFF09FF093050400032481016C
:1047A0000326C1008320C101138504008324410135
:1047B000130101026F00002E130101FD23202103CC
:1047C000232E3101232C4101232A51012328610189
:1047D0002326710123261102232481022322910220
:1047E000130B0500938B0500930A0600130A0000C3
:1047F000930910001309F0FF83A44A0003A48A0060
:104800009384F4FF63C804028357C40063FEF90075
:104810008317E4009305040013050B00638627014A
:10482000E7800B00336AAA009384F4FF1304840624
:10483000E39C24FD83AA0A00E3900AFC8320C102C2
:104840000324810283244102032901028329C10137
:10485000832A4101032B0101832BC10013050A00A8
:10486000032A81011301010367800000130101FB8A
:10487000232021053389C6029307C1012322F102B7
:10488000930710002324810423229104232E310353
:10489000232EB100232611042324F1022320210317
:1048A00023262103930906001384060093040500C0
:1048B0009305070063060500832745036386070603
:1048C0008397C500139727016342070203A7450694
:1048D000B7E6FFFF9386F6FF37260000B3E7C70071
:1048E0003377D7002396F50023A2E506130641028D
:1048F00013850400EF405025630805008327C1029B
:104900003309F940335439038320C10413050400EB
:104910000324810483244104032901048329C1035E
:1049200013010105678000002326E100EFF01FD787
:104930008325C1006FF0DFF8130101FB23229104EE
:10494000B384C502232E310383A941F49307C10127
:104950002322F10293071000232481042320210540
:1049600023261104232EA1002324F10223209102E7
:10497000232691021389050013040600938506007F
:104980006386090083A74903638607068397C500EA
:10499000139727016342070203A74506B7E6FFFF07
:1049A0009386F6FF37260000B3E7C7003377D700BA
:1049B0002396F50023A2E50613064102138509009C
:1049C000EF409018630805008327C102B384F440C8
:1049D00033D424038320C104130504000324810479
:1049E00083244104032901048329C1031301010520
:1049F00067800000138509002326D100EFF01FCA4D
:104A00008325C1006FF09FF8130101FC2324C1022C
:104A10002326D1022328E102232AF102232C0103B9
:104A2000232E11031386050083258500930681023A
:104A3000232E11002326D100EF10803F8320C101D7
:104A4000130101046780000003A341F4130101FC7A
:104A50002324C1022326D1022322B1022328E1020A
:104A6000232AF102232C0103232E11038325830023
:104A7000930641021306050013050300232E1100BF
:104A80002326D100EF10C03A8320C1011301010495
:104A900067800000130101FE232C8100232E1100EA
:104AA000130405006306050083274503638007069A
:104AB000832786009387F7FF2324F60063DC070033
:104AC0000327860163CAE70293F7F50F1307A000D7
:104AD0006384E7028327060013F5F50F1387170099
:104AE0002320E6002380B7008320C1010324810135
:104AF00013010102678000001305040003248101F3
:104B00008320C101130101026F0080302326C10000
:104B10002324B100EFF09FB80326C1008325810054
:104B20006FF01FF9130101FE232A210103A941F4AB
:104B3000232C9100232E1100930405006306090025
:104B4000832749036388070683A785009387F7FFB8
:104B500023A4F50063DC070003A7850163CCE7020B
:104B600093F7F40F1307A0006386E70283A70500FD
:104B700013F5F40F1387170023A0E5002380970097
:104B80008320C10183248101032941011301010212
:104B9000678000008320C10113860500130509000A
:104BA000938504000329410183248101130101023B
:104BB0006F000026130509002326B100EFF01FAE99
:104BC0008325C1006FF05FF8130101FC232C8102E3
:104BD0001304050013850500232A9102232E1102D8
:104BE00093840500EF00903BB72701809387470C23
:104BF0002324F102930710002326F1020327440324
:104C00009307010293061500232AF1009307200061
:104C1000232091022322A102232ED100232CF10074
:104C200083258400630007068397C5001397270137
:104C30006342070203A74506B7E6FFFF9386F6FF28
:104C400037260000B3E7C7003377D7002396F50077
:104C500023A2E5061306410113050400EF40C06ED0
:104C60008320C10303248103133515003305A040BD
:104C70001375B500832441031305F5FF13010104E7
:104C800067800000130504002326B100EFF01FA188
:104C90008325C1006FF05FF99305050003A541F47A
:104CA0006FF09FF2130101FF23248100138405009C
:104CB0008395E50023261100EF00006463400502A0
:104CC000832704058320C100B387A7002328F404A9
:104CD0000324810013010101678000008357C40091
:104CE00037F7FFFF1307F7FFB3F7E7008320C10093
:104CF0002316F400032481001301010167800000E2
:104D000013050000678000008397C500130101FEB2
:104D1000232C8100232A91002328210123263101FD
:104D2000232E110013F707101384050093040500C8
:104D300013090600938906006310070437F7FFFF85
:104D40001307F7FFB3F7E7008315E4002316F40019
:104D5000032481018320C101938609001306090001
:104D60008329C10003290101138504008324410123
:104D7000130101026F0080648395E5009306200013
:104D800013060000EF00C0508317C4006FF01FFB34
:104D9000130101FF23248100138405008395E5009E
:104DA00023261100EF00C04E9307F0FF6308F502C1
:104DB0008357C400371700008320C100B3E7E70022
:104DC0009397070193D707412328A4042316F400DF
:104DD0000324810013010101678000008357C40090
:104DE00037F7FFFF1307F7FFB3F7E70093970701C4
:104DF00093D707418320C1002316F40003248100C8
:104E000013010101678000008395E5006F004036C3
:104E1000130101FE232C8100232A91002328210164
:104E2000232E1100130905009384050013040600C6
:104E300063060500832745036380071683278401E3
:104E40000317C4002324F4009377870063800708C6
:104E500083270401638C070623263101931627015B
:104E600093F9F40F93F4F40F63D8060803270400B2
:104E700083264401B307F74063D8D70A832684000A
:104E8000130617002320C4009386F6FF2324D400C2
:104E90002300370103274401938717006302F70CAF
:104EA0008357C40093F71700639A070C8329C10046
:104EB0008320C1010324810103290101138504001A
:104EC000832441011301010267800000930504005F
:104ED00013050900EF00000E631E05080317C40048
:104EE00023263101832704019316270193F9F40F38
:104EF00093F4F40FE3CC06F68326440637E6FFFF6F
:104F0000B72500003367B7001306F6FFB3F6C600F7
:104F10002316E400032704002322D4068326440139
:104F2000B307F740E3CCD7F4930504001305090059
:104F3000EF40C033631E050203270400832684006C
:104F400093071000130617009386F6FF2320C40072
:104F50002324D4002300370103274401E312F7F48C
:104F60009305040013050900EF404030E30005F409
:104F70008329C1009304F0FF6FF09FF39307A00013
:104F8000E396F4F29305040013050900EF40002EA8
:104F9000E30E05F06FF0DFFDEFF04FF06FF01FEA6A
:104FA0009307050003A541F41386050093850700C8
:104FB0006FF01FE683A741F4130101FF2324810052
:104FC0002322910023261100930405001384050079
:104FD0006386070003A74703630C070E8317C4000B
:104FE00013F78700630A070603270401630607080F
:104FF00093F61700638806028326440123240400E5
:1050000013050000B306D040232CD400630A070226
:105010008320C10003248100832441001301010186
:105020006780000093F627001306000063940600D3
:10503000032644012324C40013050000E31A07FCDF
:1050400013F70708E30607FC93E707042316F400A9
:105050001305F0FF6FF0DFFB13F70701630007088C
:1050600013F74700631C07020327040193E7870037
:105070002316F400E31E07F693F607281306002014
:10508000E388C6F69305040013850400EF40C07C56
:105090008317C400032704016FF09FF583250403E1
:1050A000638E0500130704046388E500138504007C
:1050B000EF00D0278317C40023280402032704012C
:1050C00093F7B7FD232204002320E4006FF01FFABA
:1050D00013850700EFF08FDC6FF05FF0130790008F
:1050E00023A0E40093E707042316F4001305F0FF60
:1050F0006FF01FF29307300063FEC702B3E7A5000D
:1051000093F7370063940702930630006F00400165
:105110001306C6FF130545009385450063FCC600D2
:105120000327050083A70500E304F7FE9306F6FFB7
:105130006F00C0009306F6FF630806029386160010
:10514000B306D5006F0080006380A6028347050088
:1051500003C705001305150093851500E386E7FED8
:105160003385E7406780000013050000678000007A
:10517000130101FF23248100232291001304050061
:10518000138505002326110023AE01F4EFB04FD1A3
:105190009307F0FF630CF5008320C1000324810016
:1051A00083244100130101016780000083A7C1F53A
:1051B000E38407FE8320C1002320F4000324810040
:1051C00083244100130101016780000083A741F49B
:1051D000638EA70A83254504130101FE232A91004B
:1051E000232E110093040500638C0504232821015C
:1051F00023263101232C81001309000093090008A4
:10520000B387250103A40700630E0400930504007F
:105210000324040013850400EF005011E31804FE7A
:1052200083A5440413094900E31C39FD13850400D8
:10523000EF00D00F03248101032901018329C1005C
:1052400083A584036386050013850400EF00100E18
:1052500083A5C4046386050013850400EF00100DC8
:1052600083A74403638C07008320C10113850400D6
:105270008324410113010102678007008320C101DB
:105280008324410113010102678000006780000050
:10529000130101FF138705002324810023229100BD
:1052A0009305060013040500138606001305070086
:1052B0002326110023AE01F4EFB08FCC9307F0FF4B
:1052C000630CF5008320C100032481008324410086
:1052D000130101016780000083A7C1F5E38407FE85
:1052E0008320C1002320F400032481008324410093
:1052F0001301010167800000130101FF13870500FE
:105300002324810023229100930506001304050045
:1053100013860600130507002326110023AE01F4AF
:10532000EFB00FCA9307F0FF630CF5008320C100B4
:1053300003248100832441001301010167800000E0
:1053400083A7C1F5E38407FE8320C1002320F40076
:1053500003248100832441001301010167800000C0
:10536000130101FF2324810023229100130405006F
:10537000138505002326110023AE01F4EFB04FD4AE
:105380009307F0FF630CF5008320C1000324810024
:1053900083244100130101016780000083A7C1F548
:1053A000E38407FE8320C1002320F400032481004E
:1053B000832441001301010167800000130101FFF4
:1053C0001387050023248100232291009305060002
:1053D0001304050013860600130507002326110099
:1053E00023AE01F4EFB0CFC49307F0FF630CF500D8
:1053F0008320C100032481008324410013010101A3
:105400006780000083A7C1F5E38407FE8320C10005
:105410002320F400032481008324410013010101AF
:1054200067800000130101FF23248100B72701805A
:1054300037240180232021019387077A1307047AF8
:1054400023261100232291003389E7406382E7027B
:10545000135929401304047A93040000832704009D
:105460009384140013044400E7800700E3E824FF5A
:1054700037240180B72701809387077A1307047ABE
:105480003389E740135929406380E7021304047A03
:105490009304000083270400938414001304440041
:1054A000E7800700E3E824FF8320C1000324810094
:1054B00083244100032901001301010167800000DA
:1054C000130101FF23248100B727018037240180C5
:1054D0009387077A1304047A3304F440232291005B
:1054E0002326110093542440638004021304C4FF54
:1054F0003304F400832704009384F4FF1304C4FFEF
:10550000E7800700E39804FE8320C10003248100A4
:105510008324410013010101678000001303F000A0
:1055200013070500637EC3029377F7006390070AB1
:1055300063920508937606FF1376F600B386E600BD
:105540002320B7002322B7002324B7002326B70067
:1055500013070701E366D7FE6314060067800000A7
:10556000B306C3409396260097020000B386560008
:105570006780C6002307B700A306B7002306B7005D
:10558000A305B7002305B700A304B7002304B700A1
:10559000A303B7002303B700A302B7002302B70099
:1055A000A301B7002301B700A300B7002300B70091
:1055B0006780000093F5F50F93968500B3E5D5005D
:1055C00093960501B3E5D5006FF0DFF693962700BB
:1055D00097020000B386560093820000E78006FA27
:1055E00093800200938707FF3307F7403306F600E6
:1055F000E378C3F66FF0DFF3B3C7A50093F7370086
:10560000B308C500639407069307300063F0C7062C
:105610009377350013070500639A070613F6C8FF52
:10562000B306E6409307000263CED70893860500D1
:10563000930707006378C70203A806009387470013
:105640009386460023AE07FFE3E8C7FE9307F6FF05
:10565000B387E74093F7C7FF938747003307F70007
:10566000B385F50063681701678000001307050024
:105670006378150583C70500130717009385150088
:10568000A30FF7FEE398E8FE6780000083C60500DD
:105690001307170093773700A30FD7FE93851500E4
:1056A000E38E07F683C605001307170093773700CC
:1056B000A30FD7FE93851500E39A07FC6FF01FF642
:1056C00067800000130101FF2326810013040002FC
:1056D00083A3050083A2450083AF850003AFC50007
:1056E00083AE050103AE450103A3850103A8C501EF
:1056F00083A6050213074702B307E640232E77FC73
:10570000232057FE2322F7FF2324E7FF2326D7FF7A
:105710002328C7FF232A67FE232C07FF232ED7FE4B
:1057200093854502E346F4FA938605009307070044
:105730006378C70203A80600938747009386460054
:1057400023AE07FFE3E8C7FE9307F6FFB387E74002
:1057500093F7C7FF938747003307F700B385F5003A
:10576000636817010324C100130101016780000071
:1057700083C705001307170093851500A30FF7FED5
:10578000E382E8FE83C70500130717009385150021
:10579000A30FF7FEE39EE8FC6FF0DFFC9377350084
:1057A00013070500639C0704B7867F7F9386F6F78F
:1057B0009305F0FF0326070013074700B377D600D1
:1057C000B387D700B3E7C700B3E7D700E384B7FEDA
:1057D0008346C7FFB307A740638406048346D7FF09
:1057E000638C06020345E7FF3335A0003305F5005F
:1057F0001305E5FF67800000E38806FA834707008A
:105800001307170093763700E39807FE3307A74086
:105810001305F7FF678000001385D7FF678000003E
:105820001385C7FF6780000083A701F6638C070418
:1058300003A747001308F0016340E8081318270086
:1058400063060502338307012324C30883A887184E
:10585000130610003316E600B3E8C80023A4171996
:105860002324D310930620006306D50213071700E4
:1058700023A2E700B387070123A4B70013050000A4
:10588000678000001388810C23A001F79387810CA7
:105890006FF01FFA83A6C7181307170023A2E700AB
:1058A000B3E6C60023A6D718B387070123A4B70021
:1058B00013050000678000001305F0FF67800000FB
:1058C000130101FD232C41012320210303A901F62B
:1058D000232611026308090A232E3101232A5101CC
:1058E00023286101232671012324810223229102AE
:1058F00023248101130B0500938B05009309F0FF0E
:10590000930A1000832449001384F4FF634E0404B7
:1059100093942400B304990063900B0883274900F3
:1059200083A644009387F7FF638C870A23A20400B1
:10593000638606028327891833978A00032C49005F
:10594000B377F70063960706E78006000327490050
:1059500083A701F663108709639E27071304F4FFEA
:105960009384C4FFE31A34FB03248102832441029D
:105970008329C101832A4101032B0101832BC1002B
:10598000032C81008320C10203290102032A810123
:10599000130101036780000083A74410E38077F9B7
:1059A0001304F4FF9384C4FFE31834FF6FF0DFFBAC
:1059B0008327C91883A544083377F70063160702C5
:1059C00013050B00E78006000327490083A701F6B3
:1059D000E30487F9E38A07F8138907006FF09FF261
:1059E000232289006FF0DFF413850500E7800600AD
:1059F0006FF0DFF5130101FE23263101B729018085
:105A0000232C8100232A91002328210123244101F2
:105A1000232E1100138A0500130905009389897C40
:105A2000EFE09F9603A78900B71700009387F7FE62
:105A3000832447003717000093F4C4FF3384F40035
:105A4000330444411354C4001304F4FF1314C4007A
:105A5000634EE4009305000013050900EFF05F902A
:105A600083A78900B38797006308F502130509002F
:105A7000EFE0DF918320C1010324810183244101F0
:105A8000032901018329C100032A810013050000B5
:105A90001301010267800000B3058040130509006F
:105AA000EFF01F8C9307F0FF6308F504938781F6EE
:105AB00003A7070083A68900B384844093E41400FD
:105AC000330787401305090023A2960023A0E700AF
:105AD000EFE0DF8B8320C101032481018324410196
