:0200000480007A
:100000006F00804B6F00C02B6F00004A6F00C0492B
:100010006F0080496F0040496F0000496F00C04881
:100020006F0080486F0040486F0000486F00C04775
:100030006F0080476F0040476F0000476F00C04669
:100040006F0080466F0040466F0000466F00C0455D
:100050006F0080456F0040456F0000456F00C04451
:100060006F0080446F0040446F0000446F00C04345
:100070006F0080436F0040436F0000436F000054E7
:10008000973101009381816C17010300130181F7FF
:1000900017050000130505F713651500731055309B
:1000A000138581F4138681253306A640930500004D
:1000B000EF50504117650000130545BBEF40C026C7
:1000C000EF50D03013050000930500001306000028
:0C00D000EF0000016F40802667800000F8
:1000E000130101812324817E2326117E2322917E08
:1000F0002320217F232E317D232C417D9306000078
:10010000130101FD130600009305000013050020F4
:10011000EF30001A13040500171501001305C5CBB5
:10012000EF5000326306041613050400EF3040213F
:1001300017150100130545CCEF508030F32420B093
:10014000F32900B0971501009385C5D61306010069
:1001500013050400EF30C054732920B0732A00B097
:1001600017150100130545CAEF50802DB3059940BE
:1001700033063A4117150100130505CAEF50400731
:1001800037160000130606809715010093858552E7
:1001900013050100EF5080709304050063100504FF
:1001A000171501001305C5CEEF5080291305040073
:1001B000EF40401C130101038320C17E138504001E
:1001C0000324817E8324417E0329017E8329C17D0E
:1001D000032A817D1301017F67800000171501004C
:1001E000130585C6EF50C025B7170000938207801E
:1001F00013040100B3892200171901001309C9C8AB
:1002000003162400831504001305090013040402D7
:10021000EF40107E031664FE831544FE13050900AB
:10022000EF40107D0316A4FE831584FE130509001C
:10023000EF40107C0316E4FE8315C4FE130509008D
:10024000EF40107B031624FF831504FF13050900FC
:10025000EF40107A031664FF831544FF130509006D
:10026000EF4010790316A4FF831584FF13050900DE
:10027000EF4010780316E4FF8315C4FF130509004F
:10028000EF401077E31E34F7930410006FF09FF2F5
:1002900017150100130505B5EF50801A93041000DF
:1002A0006FF05FF10000000000000000000000009F
:1002B0001305000067800000130000001300000019
:1002C0001305000067800000130000001300000009
:1002D00013050000678000001300000013000000F9
:1002E00013050000678000001300000013000000E9
:1002F00013050000678000001300000013000000D9
:1003000013050000678000001300000013000000C8
:1003100013050000678000001300000013000000B8
:1003200013050000678000001300000013000000A8
:100330001305000067800000130000001300000098
:100340001305000067800000130000001300000088
:100350001305000067800000130000001300000078
:100360001305000067800000130000001300000068
:100370001305000067800000130000001300000058
:100380001305000067800000130000001300000048
:100390001305000067800000130000001300000038
:1003A0001305000067800000130000001300000028
:1003B0001305000067800000130000001300000018
:1003C0001305000067800000130000001300000008
:1003D00013050000678000001300000013000000F8
:1003E00013050000678000001300000013000000E8
:1003F00013050000678000001300000013000000D8
:1004000013050000678000001300000013000000C7
:1004100013050000678000001300000013000000B7
:1004200013050000678000001300000013000000A7
:100430001305000067800000130000001300000097
:100440001305000067800000130000001300000087
:100450001305000067800000130000001300000077
:100460001305000067800000130000001300000067
:100470001305000067800000130000001300000057
:100480001305000067800000130000001300000047
:100490001305000067800000130000001300000037
:1004A0001305000067800000170501001305D575CE
:1004B000EF4010796FF05FFF130101FC2320110062
:1004C0002322A1002324B1002326C1002328D10028
:1004D000232AE100232CF100232E01012320110304
:1004E0002322510223246102232671022328C103FF
:1004F000232AD103232CE103232EF103F3222034FA
:1005000013032000638862021303B0006388620053
:1005100013033000638862006F00C002EF00403EAA
:100520006F004003170501001305C569EF405071C6
:100530006F004002170501001305C563EF405070BE
:100540006F004001170501001305E569EF40506F8A
:100550006F004002F32210340383020013053000C1
:100560003373A3006314A3009382220093822200BA
:1005700073901234832001000325410083258100FC
:100580000326C1008326010103274101832781013E
:100590000328C1018328010283224102032381022F
:1005A0008323C102032E0103832E4103032F810302
:1005B000832FC10313010104730020307300203026
:1005C0003305A04023AEA1F41305F0FF67800000BF
:1005D00097070100938787651308500537070010B8
:1005E0002320070183C61700638006062320D70057
:1005F00083C22700638A02042320570003C3370005
:10060000630403042320670083C34700638E03024F
:100610002320770003C55700630805022320A700A5
:1006200083C56700638205022320B70003C67700F5
:1006300093878700630A06002320C70003C80700CA
:10064000E31008FA678000006780000013000000D4
:100650009307800523AEF1F41305F0FF67800000D7
:100660009307800523AEF1F41305F0FF67800000C7
:100670009307800523AEF1F41305F0FF67800000B7
:100680009307800523AEF1F41305F0FF67800000A7
:100690009307800523AEF1F41305F0FF6780000097
:1006A0001305F0FF67800000130000001300000036
:1006B0009307C00023AEF1F41305F0FF678000003C
:1006C000B707048023A0A700730050106F0000003C
:1006D0009307800523AEF1F41305F0FF6780000057
:1006E0009307B00023AEF1F41305F0FF678000001C
:1006F000B727000023A2F500130500006780000063
:100700009307800523AEF1F41305F0FF6780000026
:100710009307800523AEF1F41305F0FF6780000016
:10072000930780FA23AEF1F4130500006780000000
:100730001305100067800000130000001300000084
:10074000930780FA23AEF1F41305F0FF67800000F1
:100750001305F5FF13351500678000001300000036
:100760009307600123AEF1F41305F0FF67800000EA
:100770009307F00123AEF1F41305F0FF678000004A
:100780001305000067800000130000001300000044
:100790009307800523AEF1F41305F0FF6780000096
:1007A0001305F0FF67800000130000001300000035
:1007B0009307800523AEF1F41305F0FF6780000076
:1007C0001305000067800000130000001300000004
:1007D000B727000023A2F500130500006780000082
:1007E0001305F0FF678000001300000013000000F5
:1007F0001305F0FF678000001300000013000000E5
:100800009307200023AEF1F41305F0FF678000008A
:100810009307800523AEF1F41305F0FF6780000015
:100820009307A00023AEF1F41305F0FF67800000EA
:10083000130101FF23202101138981F4832709007B
:100840002324810023229100232611009384050094
:1008500013040600638A070213060400938504004C
:10086000172501001305856EEF0080598320C10014
:10087000130504000324810083244100032901009F
:100880001301010167800000B7C5010013063000A5
:1008900093850520172501001305456BEF0040499E
:1008A00093021000232059006FF01FFB130000007B
:1008B00023ACA1F2130500006780000013000000C4
:1008C000138781F3032307003305A3002320A70028
:1008D000637C250097F202009382C2726376550012
:1008E00013050300678000009307C0001303F0FFA7
:1008F00023AEF1F41305030067800000130000002D
:10090000130101FF232291002326110093071008F1
:100910009384050063CC170D9307F00263D6170389
:10092000938008FD9302100563E41202170301008F
:100930001303033293982000338768008323070052
:10094000B385630067800500930E1001638AD80F9A
:1009500093045005170701001307472DB70F001028
:1009600023A09F0083471700638E070423A0FF0086
:10097000834027006388000423A01F0083423700C0
:100980006382020423A05F0003434700630C030259
:1009900023A06F00834857006386080223A01F012D
:1009A000834367006380030223A07F0083457700B1
:1009B000638A05001307870023A0BF008344070054
:1009C000E39004FA8320C100832441001301010154
:1009D000678000008320C100130E800523AEC1F59F
:1009E0008324410013010101678000009300F0405F
:1009F000E3C010F79302F03F63D61203938808C058
:100A00001303F000E36613F5170701001307C73857
:100A1000939328003385E300832505003386E500A2
:100A200067000600130EC00AE38EC8F963461E0372
:100A3000130F9009E388E8F9930F900AE39AF8F10D
:100A4000130F80FA23AEE1F56FF0DFF737250000D2
:100A500023A2A4006FF01FF7930E600DE39AD8EF66
:100A600023ACA1F26FF01FF61308F00123AE01F5DD
:100A70006FF05FF59306200023AED1F46FF09FF482
:100A8000370404802320A400730050106F0000007E
:100A90009304600123AE91F46FF0DFF22320210173
:100AA000138981F42324810013040600032609001E
:100AB00063060602130604000324810003290100D3
:100AC0008320C10093850400832441001725010081
:100AD0001305C547130101016F008032B7C601003D
:100AE00013063000938506201725010013050546DF
:100AF000EF00002413081000232009016FF09FFB72
:100B00008327C500638807208328050163840820A4
:100B10000328050003469500032745018346480145
:100B2000B3E2C600A304550013F306026302031EDA
:100B3000B383E84093050001138F030063F475004D
:100B4000130F0001638AE81C338EE700834E0E000A
:100B5000930F1700130610002300D801232AF50174
:100B60006370761AB386F70183C206001303270069
:100B70009305200023005800232A650063F27518AE
:100B8000338E6700834E0E00130637009306300045
:100B90002300D801232AC50063F47616B382C70068
:100BA00003C3020093054700130E400023006800B2
:100BB000232AB50063767E14B38EB70083C60E0079
:100BC00013065700930250002300D800232AC500C3
:100BD00063F872123383C70083450300930E6700E6
:100BE000130E60002300B800232AD501637A7E101B
:100BF000B386D70183C20600130677001303700083
:100C000023005800232AC500637C730EB385C700F8
:100C100083CE050093068700130E80002300D801C1
:100C2000232AD500637E7E0CB382D70003C3020063
:100C3000130697009305900023006800232AC5003F
:100C400063F0750CB38EC70083C60E009302A70035
:100C5000130EA0002300D800232A550063727E0AD9
:100C600033835700834503001306B700930EB0008B
:100C70002300B800232AC50063F47E08B386C700AA
:100C800083C206001303C700130EC00023005800E0
:100C9000232A650063767E06B385670083CE050050
:100CA0001306D7009306D0002300D801232AC500DD
:100CB00063F87604B382C70003C302009305E7001C
:100CC000130EE00023006800232AB500637A7E0239
:100CD000B38EB70083C60E001306F7009302F00030
:100CE0002300D800232AC50063FC7200B387C70025
:100CF00003C307001307070123006800232AE50048
:100D000093050000638403009305FFFF3387F5011B
:100D10006384E800678000008348480023280500BA
:100D200013F5D80F2302A80067800000130000000D
:100D3000130101FE232A910083240500232C810046
:100D40002328210123263101232E110023820400B0
:100D500023840400930770FC2384F4002388040098
:100D60002322B5001304050013890500930906002A
:100D7000930600001386050037D512139305000073
:100D8000EF308011B7028000637455029350F50074
:100D9000130700F82386E40013F3F00F13557500D2
:100DA000238264009373F50F23807400238604006C
:100DB0002386340123043401A304040097050000B2
:100DC000938545D4232224018320C10123280400D4
:100DD00023260400232A0400232E0400232C0400CD
:100DE000232204022320B40203248101832441012D
:100DF000032901018329C10013010102678000005A
:100E0000130101FF23260100638C0522630A0622D9
:100E1000032505003386C5009307100303474501EA
:100E2000232601008326C1009372F70F63E2D70ADD
:100E30000323C10093031300232671000328C1007C
:100E400063E807098328C100138E18002326C10117
:100E5000832EC10063EED707032FC100930F1F003D
:100E60002326F1010327C10063E4E7068326C100BE
:100E700013831600232661008323C10063EA7704ED
:100E80000328C1009308180023261101032EC10076
:100E900063E0C705832EC100138F1E002326E101E6
:100EA000832FC10063E6F7030327C10093061700F1
:100EB0002326D1000323C10063EC67008323C10014
:100EC00013881300232601018328C100E3F217F7DA
:100ED00093F20202E38402F423260100032EC100F0
:100EE00063E2C70B832EC100138F1E002326E1018E
:100EF000832FC10063E8F7090327C1009306170099
:100F00002326D1000323C10063EE67068323C100BB
:100F100013881300232601018328C10063E4170707
:100F20008322C100138E12002326C101832EC1002B
:100F300063EAD705032FC100930F1F002326F10199
:100F40000327C10063E0E7048326C1001383160072
:100F5000232661008323C10063E677020328C100D2
:100F600093081800232611018322C10063EC570067
:100F7000032EC100930E1E002326D101032FC100B2
:100F8000E3F2E7F783CF05002300F50123260100F4
:100F90000327C10063E2E70A8326C100138316001A
:100FA000232661008323C10063E877080328C1007A
:100FB00093081800232611018322C10063EE57060F
:100FC000032EC100930E1E002326D101032FC10062
:100FD00063E4E707832FC10013871F002326E10086
:100FE0008326C10063EAD7040323C10093031300DF
:100FF000232671000328C10063E007058328C10090
:101000009382180023265100032EC10063E6C70314
:10101000832EC100138F1E002326E101832FC10000
:1010200063ECF7010327C100930617002326D100C4
:101030000323C100E3F267F693851500E390C5DE54
:10104000130101016780000013000000130000007D
:101050006388050E03C605006304060E832705009A
:10106000130101FF9386150003C747019372F70F21
:10107000A30751000343F100937303026396030A2D
:1010800003C547019375F50FA307B1000348F100AD
:1010900093780802639A080803CE4701937EFE0FF7
:1010A000A307D101034FF100937F0F02639E0F0648
:1010B00003C747019372F70FA30751000343F100E1
:1010C000937303026392030603C547019375F50FFB
:1010D000A307B1000348F10093780802639608045F
:1010E00003CE4701937EFE0FA307D101034FF1000A
:1010F000937F0F02639A0F0203C747019372F70FA2
:10110000A30751000343F10093730302639E03009E
:1011100003C547019375F50FA307B1000348F1001C
:1011200093780802E38208F4938616002380C700B0
:1011300003C6F6FFE31A06F21301010167800000FF
:10114000678000001300000013000000130000007F
:10115000630C0602638A0502032705009706000058
:101160009386469A2326B500834747002328C50067
:10117000232A05002320D50293E2270023025700EB
:10118000732340F16304030067800000B723000C61
:1011900017260100130686DB83A503003305C5402F
:1011A0001338150093081000339E0801B36EBE007B
:1011B00023A0D3016780000013000000130000008B
:1011C00083270500034795008326050183C2470155
:1011D00033E3E200A304650093F3F20F6398060083
:1011E00013D5630013751500678000001305000018
:1011F00067800000130000001300000013000000CF
:101200009307050063800518630E06160327050083
:101210000345950083464701B3E2A600A384570027
:1012200013F31600630003169373360013050000D2
:10123000638C0308130810006380030793082000E1
:101240006386130303470700130510002380E5009E
:1012500003A7070003CE9700834E470133EFCE016B
:10126000A384E70193FF1E0063820F1283460700E9
:10127000B382A500130515002380D20003A7070041
:1012800003C397008343470133E86300A384070146
:1012900093F81300638C080E034E07003387A500F4
:1012A000130515002300C70103A7070083CE97008D
:1012B000034F4701B36FDF01A384F70193761F004B
:1012C0006386060C6306A60C83420700B383A50061
:1012D000130515002380530003A8070003CE9700D1
:1012E0003383A5000347480193080500B36EC70187
:1012F000A384D701137F1700630A0F08834F0800E8
:1013000013051500B382A5002300F30183A3070092
:1013100083C6970003C343013368D300A384070146
:10132000137E130063040E0603C703001385280011
:10133000B38EA5002380E20003AF070083CF9700A0
:1013400083424F01B3E3F201A384770093F61200C6
:10135000638E060203430F001385380023806E005E
:1013600003A7070083C89700034E470133681E0197
:10137000A3840701937E1E00638A0E00E316A6F481
:101380006780000013050000678000006780000090
:10139000678000001300000013000000130000002D
:1013A000F32740F163960702B726000C17270100C8
:1013B0001307C7B903A60600B302E54013B3120032
:1013C0009303100033986300B368C80023A016018C
:1013D000370E0100930EFEFF638CD5010325050037
:1013E00093F5F500034F4500B36FBF002302F501ED
:1013F00067800000130000001300000013000000CD
:10140000638E05029307000C63EAC70203270500F9
:10141000232EB5008342870013F3F203B363C300A6
:1014200093F5F30F2304B7000346470093661600B5
:101430002302D700732840F163040800678000008E
:10144000B728000C972E0100938E4EB003AE080013
:101450003305D541133F1500930F1000B397EF01EB
:1014600033E7C70123A0E8006780000013000000F5
:1014700063840502032705002320B5022326050007
:10148000834747002328050093E2270023025700E3
:10149000732340F16304030067800000B723000C4E
:1014A00097250100938585AA83A603003305B540DF
:1014B0001336150013081000B318C80033EED80017
:1014C00023A0C30167800000130000001300000088
:1014D00063800502032705002322B50283474700E6
:1014E00093E2870023025700732340F16304030053
:1014F00067800000B723000C97250100938505A5A0
:1015000083A603003305B5401336150013081000F9
:10151000B318C80033EED80023A0C30167800000D1
:10152000638805126306061283270500834695002B
:1015300003C74701B362D700A30455001373070222
:1015400063080310930300011305060063F4C3004E
:101550001305000103C8050093081000238007014C
:1015600063FAC80E03CE1500930E20002380C70136
:1015700063F2CE0E03CF2500930F30002380E701E6
:1015800063FACF0C83C63500130740002380D700D1
:101590006372C70C83C245001303500023805700B9
:1015A000637AC30A83C35500130860002380770061
:1015B0006372C80A83C86500130E70002380170188
:1015C000637ACE0883CE7500130F80002380D70185
:1015D0006372CF0883CF8500930690002380F701C4
:1015E00063FAC60683C295001307A0002380570044
:1015F0006372C70603C3A5009303B000238067008E
:1016000063FAC30403C8B5009308C0002380070130
:1016100063F2C80403CEC500930ED0002380C70137
:1016200063FACE0203CFD500930FE0002380E701D9
:1016300063F2CF0283C6E5009302F0002380D70057
:1016400063FAC20083C5F5002380B70067800000FD
:101650001305000067800000130000001300000065
:10166000832705000347950083C24701A3040500B3
:1016700033E5E2001375E509678000001300000000
:101680008327050003C58701678000001300000061
:1016900003270500834795008342470133E3F200A7
:1016A000A304650013F50206678000001300000024
:1016B000032705008347C70093E20704230657006A
:1016C00067800000130000001300000013000000FA
:1016D000032705008347C70093F2F70B2306570043
:1016E0006780000000000000000000000000000013
:1016F000130101F923229106232C4105832447007D
:10170000032A0700232EB103938D060033089A02A3
:101710002322910523261106232481062320210755
:1017200023267105232481052320A105232E3105BD
:1017300023286105B38CCD02931028009306100076
:10174000930B06001304050013890500138C070092
:10175000330D1500939C2C006388D434330BCA02DC
:1017600093078700232A51052326F100939924002B
:10177000930A05000327C1009305090013850A0099
:1017800093070C0093860D0013060B00EFF05FF635
:10179000B38A3A01330999010327C10093070C006A
:1017A00093860D0013060B0013850A0093050900AC
:1017B00063025D11EFF0DFF3B38A3A013309990157
:1017C0000327C10093070C0093860D0013060B003E
:1017D00013850A0093050900630E5D0DEFF05FF1BC
:1017E000B38A3A01330999010327C10093070C001A
:1017F00093860D0013060B0013850A00930509005C
:10180000630A5D0BEFF0DFEEB38A3A013309990109
:101810000327C10093070C0093860D0013060B00ED
:1018200013850A009305090063065D09EFF05FEC7C
:10183000B38A3A01330999010327C10093070C00C9
:1018400093860D0013060B0013850A00930509000B
:1018500063025D07EFF0DFE9B38A3A0133099901CA
:101860000327C10093070C0093860D0013060B009D
:1018700013850A0093050900630E5D03EFF05FE72F
:10188000B38A3A01330999010327C10093070C0079
:1018900093860D0013060B0013850A0093050900BB
:1018A000630A5D01B38A3A01EFF09FE433099901BD
:1018B000E3125DED93024000E30C5A46832A410592
:1018C000130740006342473993002000E3001A38B1
:1018D0001308300063100A7D139A2B00338E4403E3
:1018E0000328CC0013091000139B2400330CC801FB
:1018F000831C2C00E3922B7F33076401373A0000EE
:10190000B70901003306670193080800930BAAAAE0
:10191000B7400000138DF9FF03130400831D24005A
:10192000B30E7303B3857D03338F1E009356FF40C0
:101930002310D400338E15001359FE4023112401C7
:10194000031B070083122700330C7B03B38372034E
:10195000B30F1C0013D5FF402310A700B38713005B
:1019600013DAF740231147018319060003132600F9
:10197000B38D7903B3057303B38E1D0013DEFE40F0
:101980002310C601338F15009356FF402311D60054
:1019900003592700035B280083520700035C0800FB
:1019A00093130901931F0B0133E55300B3E78F0134
:1019B0000B2AF50083D9280003D30800939D060164
:1019C000B375AE01939E090133EEBD0033EF6E0097
:1019D0008B26EE010B09DA000B1BDA0083520400A0
:1019E000131C090193530C4193DF13403385F241DB
:1019F0002310A70083572400135A194113084800E5
:101A0000B38947412311370103532400835D040048
:101A10009388880093150301B3EEB5010B8E2E0158
:101A2000135F0B41B3069F0313190B01135B0941AD
:101A300093520E012310C40123115400035C0700CC
:101A400013064600130747009384F4FFB3039B0378
:101A5000B38F160013D5FF409317050113DA070162
:101A6000B3098A01231E36FF0353E7FF1304440022
:101A7000B38D130093D5FD40939E050113DE0E0137
:101A8000330FC341231FE6FF8356C7FF0359E7FF08
:101A9000338B4641B3022E01231E67FF231F57FEDF
:101AA000E39C04E66F00805BB30FAD40138ECFFF65
:101AB00093592E00938E190093F07E0013070500B2
:101AC0006382000C6382900A130520006382A008E1
:101AD000130B3000638260071303400063826004CD
:101AE000930250006382500293036000E39E704EA5
:101AF0008355090013074700231EB7FE035629002C
:101B000033099901231FC7FE835D090013074700AE
:101B1000231EB7FF0358290033099901231F07FF2C
:101B2000035F090013074700231EE7FF83582900BE
:101B300033099901231F17FF835F0900130747002B
:101B4000231EF7FF035E290033099901231FC7FFF6
:101B50008359090013074700231E37FF835E2900BE
:101B600033099901231FD7FF83500900130747004A
:101B7000231E17FE0355290033099901231FA7FED1
:101B80006306ED0A035B090033039901130707029B
:101B9000231067FF03592900B3029301B383920115
:101BA000231127FF83570300B385930133869501E3
:101BB0002312F7FE835D2300B3069601338F96014F
:101BC0002313B7FF03D8020033099F01231407FF33
:101BD00083D82200231517FF83DF03002316F7FFA6
:101BE00003DE23002317C7FF83D90500231837FF1F
:101BF00083DE25002319D7FF83500600231A17FE22
:101C000003552600231BA7FE03DB0600231C67FFEA
:101C100003D32600231D67FE83520F00231E57FEA9
:101C200083532F00231F77FEE31EEDF4130D4000B6
:101C3000E318AAC9130A0000930C0000130C00005B
:101C4000930F10006F00102B1309500063142A45E6
:101C5000B3859B02232A5105832ACC009397240045
:101C6000330FF400B30EFF00338EFE003309FE0085
:101C700013962500B386CA00B38DC60003980D00E5
:101C800083982D008390060023260101232811014B
:101C9000839926006352903C130B1000E3986B5F0E
:101CA000138B0A00938C0A00138C0A00938B0A0092
:101CB000B7080100832A0101B72200001383F8FF4F
:101CC000130D0800232A0100138A9299B7470000D8
:101CD000232C6100232E9100831404000317240099
:101CE000B3854403330647033388F5009356F84021
:101CF0002310D400B303F60093DDF3402311B401A5
:101D0000831F0F0003152F00B3824F03B308450351
:101D10003383F2009354F34023109F003387F8007D
:101D20009355F7402311BF0003960E0003982E0031
:101D3000B3064603B3034803B38DF60093DFFD40BB
:101D40002390FE013385F3009352F54023915E000A
:101D500083180E0003132E00B38448033307430394
:101D6000B385F40013D6F5402310CE003308F700F6
:101D70009356F8402311DE0083130900831D2900C8
:101D8000B38F430333854D03B382FF0013D3F24077
:101D900023106900B308F50093D4F840231199008B
:101DA00003572F0003562B0003580F0083550B00D9
:101DB0009316070193130601B3ED0601B3EFB300C9
:101DC0008BA2FD0183D82E0003D72B0003D50E0074
:101DD00003D80B009395080113160701B3E6A5007D
:101DE000B36306018BAF7600835D2E0083582C0011
:101DF00003570E0003550C0013980D0113960801AC
:101E0000B365E800B366A6008BA3D50083DD2C0084
:101E10000327810183D80C00939404013373E300FA
:101E200013950D0133E86400336615018B25C80056
:101E30000B87B2008B9DB2000B867F008B937F00D7
:101E4000035524008354040093120501B3EF92005C
:101E50008B86EF008B86C6001358074193950D01C2
:101E60001313060193DD0D41135606419318070124
:101E70002328B10113D70541B30D180293D20841AD
:101E800093D806012310D4002311140113530341E6
:101E9000939F030193D303412326710093DF0F41E6
:101EA000B305A603B388FD0093DDF840B386F500C3
:101EB00093D5F640B386B501B303A303B305D500AC
:101EC00093950501B38D1202B383F30093D6F340CB
:101ED000B38DFD0093D3FD40B3867600B38DD4005F
:101EE00093930D01B3885F0393D60301B3E5D50047
:101EF0008326C100B30D3703B388F80093D3F840AD
:101F0000B38DFD0093D8FD40B3831301B30D704032
:101F10008323010193980D01B3865603B38D3303D8
:101F2000B386F60093D3F640B38DFD0093D6FD4003
:101F3000B383D300939D030193D60D01B3E3D8007F
:101F40008B98750093DD080123101F012311BF0139
:101F50008B8675003306160293D506012310D9002F
:101F60002311B9003308A803B303F60093D8F34054
:101F700033031302B30DF80093D6FD403386D80027
:101F80003305C50013180501B382A203B305F3009E
:101F900093D3F5408325C100B30857033387F2007C
:101FA0001353F740B38D6300B384B401832D010153
:101FB0009396040113D606013365C800B38F3F031F
:101FC0003388F8009352F840B3833503B388FF0099
:101FD00013D7F8403383E24093140301B3865D03C3
:101FE0003386F300935FF6403388F6009352F8404F
:101FF000B3855F409393050193D8030133E3140144
:102000000B076500935407012390EE0023919E0077
:102010000B15650083264101832FC101935D0501E6
:10202000138616002310AE002311BE01232AC1001F
:1020300013044400130F4F00938E4E00130E4E00F6
:1020400013094900130B4B00938B8B00130CCC002E
:10205000938C0C01E392CFC8832A41058320C106EB
:102060000324810683244106032901068329C1052F
:10207000032A8105032B0105832BC104032C810452
:10208000832C4104032D0104832DC1031301010797
:1020900067800000931C2A0013850C0003290C00A4
:1020A0008329CC00EF20402C631405006F104017EB
:1020B0006350907093001000E39E145A635A406F6F
:1020C000938ECCFF93D82E00378B0000130EFBFFAE
:1020D000370F010093F71800B3434E0313080400B1
:1020E000130C0500B38CAC0093060400B74000004D
:1020F000130DFFFF63940704831D040003172400DE
:10210000130C450093064400B3857D02B3027702A9
:10211000B38F150013D3FF4013160301935E06011E
:10212000B3F8AE01B387120013DBF740131E0B01A7
:1021300033EFC8012320E50163009C09839D06005D
:10214000839546008392260033877D02839F660035
:10215000130C8C00938686003383750233061700B8
:10216000935EF64093980E0193D7080133FBA701C5
:10217000338E7202330F1300935DFF4093950D0170
:1021800093D2050133F3A201B38F7F0233071E0000
:102190001356F740931E0601B368DB01232C1CFF86
:1021A000B3871F0013DBF740131E0B01336FC3010E
:1021B000232EECFFE3149CF9035E0500835E2500EB
:1021C000930310002310C4012311D40163027A5E2B
:1021D000930500009308000013034500B30C9A40D8
:1021E00093F03C009306030013860400930700005D
:1021F00063840010130D10006386A00B130C2000E5
:10220000638A80059387050063C42501B387254150
:1022100093962700B38DD9008352240003D62D0056
:10222000835F040003DB0D0013970201131F0601F7
:10223000B363F701832C0300B3606F018BB31C0001
:1022400013DD0301231074002311A401138614006D
:1022500093064300B387B70063C42701B3872741C0
:10226000139C2700B38D8901835F240003DB2D00BD
:102270008353040083D20D0013970F01131F0B012A
:10228000B36C770083A00600336D5F008BBCA001A8
:1022900013DC0C0123109401231184011306160092
:1022A00093864600B387B70063C42701B3872741ED
:1022B000939D2700B38FB901035B240003DF2F0038
:1022C0008353040083D20F0013170B01931C0F01DB
:1022D00003AD0600B360770033EC5C008B308D01FA
:1022E00093DD0001231014002311B401130616001E
:1022F00093864600630CCA12B387B70063C42701F4
:10230000B3872741939F2700338BF901035724009C
:10231000035F2B008353040083520B00931C0701BF
:1023200093100F0103AC060033ED7C00B3ED5000B9
:102330000B3DBC01935F0D012310A4012311F40197
:10234000B387B700938646001306160063C42701BF
:10235000B3872741139B2700B382690103572400E9
:1023600003DF22008353040083DC02009310070183
:10237000131D0F0183AD060033EC7000B36F9D0198
:102380000BBCFD01135B0C012310840123116401BC
:10239000B387B70063C42701B3872741939227000F
:1023A000B38C59000357240003DF2C00835304002F
:1023B00083D00C00131D0701131C0F0183AF4600CF
:1023C000B36D7D00336B1C008BBD6F0193D20D018B
:1023D0002310B40123115400B387B70063C427014D
:1023E000B3872741939C2700B380990103572400AA
:1023F00003DF20008353040003DD0000131C0701EA
:10240000931D0F0183AF8600336B7C00B3E2AD01F7
:102410000BBB5F00935C0B0123106401231194013B
:10242000130636009386C600E318CAEC938818009A
:1024300013084800B3857501630C1A3713040800AC
:102440002310C8012311D8016FF05FD9939924009C
:10245000130D10008325CC00330634016394AB3B8D
:10246000B7020100374A00001388F2FF831F0400FF
:10247000831024009399EF00139DE000B383F9418A
:10248000B3071D40B38843013385470113D3F84098
:10249000935DF540231064002311B401031F06006F
:1024A000831E26009316EF001397EE00338EE6414D
:1024B0003309D741330B4E01B30B4901135CFB4089
:1024C00093DCFB40231086012311960183522400E4
:1024D00083DF25008350040083D90500139D02018A
:1024E000B3730C0193970C0193980F0133651D0092
:1024F00033E3F300B3ED38012B0F65D8AB1EEFF1DA
:1025000093560F012310E4012311D40013D70E01B9
:102510002310D6012311E6009384F4FF9385450030
:102520001306460013044400E39204F46FF01FB353
:10253000139E1B0013031000938F0400B3087E0149
:10254000E37C93B033073401939E3400B305370125
:1025500033863501138304009306040093070000BB
:102560009303000093020000938D4E0013080000B7
:10257000130F100003D526008350270003DD06004B
:10258000835C0700131B050193990001B36AAB013B
:1025900033E999015B852A2903DC2500835E260047
:1025A00003DA05008350060013150C01139D0E017C
:1025B000B36C4501336B1D005B956C395B25087965
:1025C0005BBCF778DBC9F7785BD9F778DBEEF77897
:1025D000935A0C01239156012390860113DA0901C5
:1025E000231037012311470193500901239025013E
:1025F0002391150013D50E012310D6012311A60037
:1026000003DD6600835C670003DB4600035C470074
:1026100093190D0113990C01B3825B00B3037E0083
:10262000B387F800B3EE6901B36A89015B855E295F
:10263000338AB601B380ED0003552A0003DD200084
:10264000835C0A0003DB0000131C050193190D01D4
:10265000B36E9C0133E969015B952E395B250879DE
:102660005BBAF778DBC0F7785BDDF7785BE5F77886
:10267000935A0A01239246012393560193DC0001E9
:102680002312170023139701135B0D012392A50159
:1026900023936501135C05012312A6002313860111
:1026A0001303E3FFB3825B00B3037E00B387F8003C
:1026B000938686001307870093858500130686009E
:1026C000E36A6FEA9384E4FF93FB140093DD140044
:1026D000E3840B9813881D00330A0E03832A4105F7
:1026E000131F38003304E401B3880803131C1A00D5
:1026F000939C180093942F00B30B9400035724006D
:1027000003D92B008355040083D70B0033869B002D
:1027100093160701931D0901330F960033E8B600A5
:10272000B3E8FD00DB0618A1035E260083592F00E5
:10273000835E060083500F00131B0E0113950901E1
:102740003363DB01B3621500DB1653C09303000053
:10275000DBA673C85BBD9CC95BCA9CC95BDC9CC91A
:10276000DBEC9CC9935F0D012310A4012311F4013C
:1027700013540A0123904B0123918B0093540C01B5
:10278000231086012311960093DB0C0123109F0177
:1027900023117F016FF09F8C03270101130B1B0096
:1027A00013044400B387770163126771832A4105DC
:1027B000032481068320C1068324410603290106E0
:1027C0008329C105032A8105032B0105832BC1043D
:1027D000032C8104832C4104032D0104832DC103A8
:1027E000130101076F10103983D705001307440048
:1027F000338995012310F40083D625002311D400DA
:102800006FF00FAFB7070100139A2B00B74200001B
:102810001388F7FF83130400831824001393E30045
:102820001395E80033077340B30D1541B306570005
:10283000338F5D0093DEF640135EFF402310D4011A
:102840002311C40103190600031B2600931BE90092
:10285000131CEB00B38C2B41B30F6C41B3805C00B5
:10286000B3895F0013DDF04093D3F9402310A60134
:10287000231176008357240083D8250003550400D4
:1028800003D30500939D0701337F0D0113970301C7
:10289000939E0801B3E6AD00336EEF0033E96E009E
:1028A0002B8BC691AB1B6BB1135C0B012310640126
:1028B0002311840193DC0B0123107601231196016F
:1028C0009384F4FFB38545011306460013044400C6
:1028D000E39204F46FF08FF833076401B73200001D
:1028E000B70F0100939B3B00330667019308080074
:1028F0009380A2AAB7490000138DFFFF8313040041
:10290000831724003385130233831702B30D350177
:1029100013DFFD402310E401B30E330193D6FE40D4
:102920002311D40083150700031E270033891502E5
:10293000330B1E02330C39019352FC402310570015
:10294000B30F3B0193D3FF40231177008317060099
:102950000315260033831702B30D1502330F33011D
:10296000935EFF402310D601B3863D0193D5F64018
:102970002311B600035E270003592800035B0700FC
:10298000035C080093120E01931F0901B3E3620177
:10299000B3E78F010BA5F30003D3280083DD080004
:1029A000139F0501B3FEAE0193150301B3E6EE01DB
:1029B00033EEB5010BA9C6010B0B25010B1C25013C
:1029C00083520400931F0B0193D30F4193D71340FD
:1029D0003385F2402310A70003532400935D1B416D
:1029E00033084801B30EB3412311D701035F24001C
:1029F00083550400B388780193160F0133EEB600B7
:102A00000B096E01135B0C41B3029B03131C0C01F9
:102A100093530C41935F0901231024012311F40106
:102A20000355070013064600130747009384F4FF7D
:102A3000B387930333833201935DF340939E0D017B
:102A400093D50E01338FA500231EE6FF8356E7FFC3
:102A500013044400338E37011359FE40131B090140
:102A600093520B01338C5640231F86FF8353C7FFBD
:102A7000835FE7FF3385B340B387F201231EA7FED0
:102A8000231FF7FEE39C04E66FF04FDD13951B0058
:102A900033037501B70F0100139C4B0093932B0078
:102AA000139D3B00B7220000131A2300938BFFFFF6
:102AB00023208103232C7100232EA1012322410313
:102AC000138C0A00938C0A00938D0A00232A0100BC
:102AD00093829299B7470000232471032326910221
:102AE0008314040003172400B385540233065702ED
:102AF000B386F50013D8F64023100401B308F6009E
:102B000013DBF8402311640103150F0003132F009A
:102B1000B3035502330D5302338AF300935FFA4037
:102B20002310FF01B30BFD0093D4FB4023119F0042
:102B300083950E0003972E00338655023308570203
:102B4000B306F60093D8F64023901E01330BF8002D
:102B50001355FB402391AE0003130E0083132E0088
:102B6000330D5302338A5302B30FFD0093DBFF4052
:102B700023107E01B304FA0093D5F4402311BE0064
:102B8000031709000316290033085702B30656023B
:102B9000B308F80013DBF840231069013385F60011
:102BA0009353F5402311790003532F0003DD2A00CE
:102BB000035A0F0083DF0A00931B030193140D01D6
:102BC000B3E54B0133E7F4018BA6E50003D62E00F5
:102BD00003D52D0083D80E0003D80D001313060172
:102BE000131D0501336A1301B36F0D018B2BFA011D
:102BF00083542E0083D52C0003570E0003D60C00FF
:102C000013950401939805013368E50033E3C80088
:102C10000B2D6800035A2C0083248102835F0C0073
:102C200093930301337B9B0093150A0133677B0069
:102C300033E6F5018B28C7000B8516018B9616012C
:102C40000B88AB018B9BAB01035D2400035B04008D
:102C500013130D01336A63018B0FAA008B850F01DB
:102C6000832FC100131708019358074113530841DC
:102C700013D70B4113980B0193DB0501231174014A
:102C8000B30BF303931405011355054193D304418A
:102C90002310B400935408411396060113560641BD
:102CA00093D60641330A1502B38FFB0093DBFF4036
:102CB000832FC100B305FA00B38FF80313D8F54092
:102CC000B30578013308BD00931B0801338A130252
:102CD000B38FFF00330AFA001358FA4013DAFF40AB
:102CE00033084801B30F0B01139A0F0113580A015F
:102CF00033EA0B01832B0101B305360333887403D8
:102D0000B385F50093DFF540B30BF80013D8FB4013
:102D1000B38F0F01B30BF041832F0101B38536034D
:102D200013980B01B30BF703B385F50093DFF54060
:102D3000B38BFB0093D5FB40B38FBF00939B0F0178
:102D400093D50B013368B8008B1F0A0193DB0F0189
:102D50002310FF0123117F010B0A0A01832FC100F9
:102D60003303130293550A01231049012311B900BB
:102D7000B383F303330AF3003305F5033383F3001E
:102D800083230101935FFA40B38818023308F500EA
:102D9000935BF8403385FB01935BF340330DAD004B
:102DA00093150D01B38676023388F800135AF84064
:102DB000B38F4B01330BFB0113150B01135D0501A1
:102DC000B3E5A50133073703338BF6001355FB40FA
:102DD00033067602B303F70093DFF340338DAF4041
:102DE000B3843403B308F60013D3F840B38BF40074
:102DF00013D6FB403308C34093140D01131A080186
:102E000093D8040133631A010B876500935B0701B4
:102E10002390EE0023917E018B95650003284101EC
:102E2000832681018323C101832F4102032B0102E9
:102E30000325C10213D60501130A18002310BE0092
:102E40002311CE00232A410113044400130F4F0025
:102E5000938E4E00130E4E0013094900B38ADA0018
:102E6000B38D7D00B38CFC01330C6C01E31A45C7B4
:102E70006FF08F9E232A5105B38A9B02378D000085
:102E80001308FDFF370C0100939E2400B388AC00AB
:102E900093070000130B000023260101374E0000AA
:102EA0009303FCFF130F450013870400E358408F82
:102EB000B384A8400323C1001386C4FF935F260098
:102EC00093FD1F00B34C430393050500130D04004D
:102ED00063940D04831604008312240093054500B7
:102EE000330DD401B380960333889203338CC00131
:102EF0009354FC4013960401935F0601B3FD7F00D9
:102F00003303C8019356F34093920601B3E05D008A
:102F100023201500638A1507031C0D0083142D0060
:102F20003308DD0133069C03831D0800831F28003E
:102F3000330DD8019385850033839403B306C6010E
:102F400093D2F640B3F0720033889D03330CC30173
:102F50009354FC40939D040133E6B00123ACC5FEBD
:102F6000B38F9F033303C8019356F340B3F2760047
:102F7000B380CF0113D8F040131C0801B3E48201E1
:102F800023AE95FEE39A15F983540500835225007C
:102F9000930C100023109400231154001306040016
:102FA000630E9AFF1388070013030400930F0000B9
:102FB0002328E100130C100033078A41137D3700EA
:102FC00093050F001307000063020D1063068D0BBD
:102FD000930D2000630ABD05130708006344280110
:102FE0003307284193152700B380B90003DD200083
:102FF0008356260003DC0000835C0600939D0601D7
:1030000093150D01B3E09D0183260F0033ED85017B
:103010008BB0A60193DC000123101600231196014A
:10302000130C200093054F00330707016344270169
:1030300033072741931D2700B380B901835626002B
:1030400083DC2000835D060003DD0000939C0C01FF
:1030500093900601B3E6B00133EDAC0183AD0500FA
:103060008BB6AD0193D006012310D60023111600B4
:10307000130C1C00938545003307070163442701A7
:1030800033072741931C2700338D990183502D006E
:1030900083562600835D0600035D0D00939C0001AE
:1030A00093960601B3E0B60133EDAC0183AD0500A4
:1030B0008BB0AD0193D60001231016002311D6006A
:1030C000130C1C0093854500630C8A13330707011A
:1030D0006344270133072741931C2700B3809901DC
:1030E0008356260003DD2000835C060083DD00009C
:1030F000131D0D0193900601B3E69001B36DBD0160
:1031000083AC05008BB6BC0193D006012310D6001A
:10311000231116003307070193854500930C1C000B
:103120006344270133072741131C2700B38D89010E
:1031300083D02D0083562600035D060083DD0D003D
:10314000139C000193960601B3E0A601B36DBC0188
:1031500003AD05008B30BD0193D60001231016008E
:103160002311D600330707016344270133072741A2
:10317000131C2700B38089018356260003DC20003E
:10318000035D060083DD0000131C0C019390060113
:10319000B3E6A001B36DBC0103AD45008B36BD01A4
:1031A00093D006012310D600231116003307070120
:1031B0006344270133072741131C2700B38D89017E
:1031C00083D02D0083562600035D060083DD0D00AD
:1031D000139C000193960601B3E0A601B36DBC01F8
:1031E00003AD85008B30BD0193D60001231016007E
:1031F0002311D600138C3C009385C500E3188AED9B
:10320000938F1F003303D301330858016306FAD9A3
:103210001306030023109300231153006FF09FD96E
:103220001704010003244440832B0400130670019B
:103230009305100083A6CB0017F500001305054A7F
:10324000EF10106A03250400930510001306900187
:103250008326C50017F500001305C549EF10506817
:10326000032A0400032481068320C1068325CA00A3
:1032700083244106032901068329C105032A810508
:10328000032B0105832BC104032C8104832C4104EF
:10329000032D0104832DC1031305A00013010107B1
:1032A0006F10104513000000130000001300000011
:1032B000130101FE232C810093073500232E1100FA
:1032C00013040500139527006380060663020604B5
:1032D00083A0060063EEA00223A0A600130506004B
:1032E0008320C1012320850003248101970201006E
:1032F00083A2423317030100032343332322B50083
:103300002326550023246500130101026780000075
:1033100023A0A600130500008320C101032481011E
:1033200013010102678000002326B100EF10C003E3
:103330008325C100E31605FA130500006FF0DFFDD9
:1033400003260500635CC01A937676008327C500C8
:10335000130700006380060E93051000638CB60A05
:1033600093022000638A56081303300063886606C0
:103370009303400063867604130550006384A6021D
:10338000130860006394061983DF270083D50700C4
:1033900093960F01B3E2B6000B50570013071700C6
:1033A0009387470003D3270083D307001315030136
:1033B000336875000B500701130717009387470008
:1033C00083D8270003DE0700939E080133EFCE0168
:1033D0000B50E701130717009387470083DF27008F
:1033E00083D5070093960F01B3E2B6000B50570048
:1033F000130717009387470003D3270083D30700E1
:1034000013150301336875000B50070113071700EC
:103410009387470083D8270003DE0700939E0801A7
:1034200033EFCE010B50E7011307170093874700D6
:103430006306E60C83DF270083D5070093960F0110
:10344000B3E2B6000B50570003D3670083D34700A5
:103450001305170013180301B36878000B5015010A
:1034600003DEA70083DE8700130F2700931F0E01E2
:10347000B3E5DF010B50BF0083D6E70083D2C7005E
:10348000130337009393060133E553000B50A30059
:1034900003D8270183D80701130E4700931E0801A4
:1034A00033EF1E010B50EE0183DF670183D247012A
:1034B0009305570093960F0133E356000BD0650038
:1034C00083D3A70103D587011308670093980301ED
:1034D00033EEA8000B50C80183DEE70103DFC7010C
:1034E000930F770093920E01B3E5E2010BD0BF007A
:1034F0001307870093870702E31EE6F213063000E6
:10350000130700000B60E6006780000083D82700E7
:1035100003DE0700939E080133EFCE010B50E70155
:1035200013071000938747006FF01FE61300000099
:10353000130101FE232C8100232E1100130405002A
:103540006382C502032784009307040003248101DA
:103550008320C101130506001306100013010102A8
:103560006FE00F99232A9100938405006388050674
:1035700003250500232821012326310113152500E9
:1035800013890600EF00505E930905006308050AE1
:103590000327840093070400930609009385040021
:1035A00013061000EFE0CF94032604009385090072
:1035B0001385040013162600EF20807E032481016A
:1035C00083244101032901018320C10113850900DE
:1035D0008329C100130101026F00D0599704010033
:1035E00083A4840483A004001306700193051000D3
:1035F00083A6C00017F5000013058511EF10502EAB
:1036000083A30400930510001306100183A6C300D2
:1036100017F5000013054511EF10902C83A5040049
:10362000832441011305A00083A5C5000324810163
:103630008320C101130101026F10900B17040100D8
:10364000032484FE832704001306700193051000F1
:1036500083A6C70017F500001305450EEF1050288C
:1036600083220400930510001306800183A6C20084
:1036700017F500001305050EEF1090260323040034
:1036800083244101032901018325C3008329C1004B
:103690001305A0006FF09FF9130000001300000055
:1036A000130101FF232481002326110013040500C8
:1036B0006384C50203278400930704000324810068
:1036C0008320C100130506009306100013061000A6
:1036D000130101016FE0CF81232291009384050043
:1036E000638205060325050023202101131525000B
:1036F000EF009047130905006306050A03278400BD
:10370000930704009385040093061000130610002D
:10371000EFD01FFE03260400930509001385040063
:1037200013162600EF20C067032481008324410084
:103730008320C100130509000329010013010101C1
:103740006F0050439704010083A404EE83A004009B
:10375000130670019305100083A6C00017F5000042
:10376000130505FBEF10D01783A304009305100089
:103770001306100183A6C30017F500001305C5FA50
:10378000EF10101683A50400832441001305A00048
:1037900083A5C500032481008320C100130101011A
:1037A0006F10007517040100032404E88327040048
:1037B000130670019305100083A6C70017F50000DB
:1037C0001305C5F7EF10D0118322040093051000F4
:1037D0001306800183A6C20017F50000130585F7C4
:1037E000EF1010100323040083244100032901007B
:1037F0008325C3001305A0006FF0DFF9130000005C
:103800006780000013000000130000001300000098
:10381000937715009306300013075000130810002B
:10382000639407189307050013D6F701B302F60057
:1038300093D7124013D3F70193F51700B303F300A6
:103840006394050893D7134093D8F70193FE1700AC
:10385000338EF800639A0E0693571E4013DFF7016C
:1038600013F61700B30FFF006310060693D71F402F
:1038700093D2F70193F317003383F20063960304A6
:103880009357134093D5F70113FE1700B388F50043
:10389000631C0E0293D7184093DEF70193FF1700C5
:1038A000338FFE0063920F0293571F4013D6F70128
:1038B00013F31700B302F6006318030093D7124006
:1038C00093F31700E38203F6B3E5D702639205068C
:1038D000B3C7D702B3E8D702639C0804B3C7D702C3
:1038E00033EED70263160E04B3C7D702B3EED70286
:1038F00063900E04B3C7D70233EFD702631A0F02E7
:10390000B3C7D702B3EFD70263940F02B3C7D7028E
:1039100033E6D702631E0600B3C7D702B3E2D7026D
:1039200063980200B3C7D70233E3D702E30203FA76
:10393000B3E3E70263920306B3C7E702B3E5E70226
:10394000639C0504B3C7E702B3E8E7026396080483
:10395000B3C7E70233EEE70263100E04B3C7E70212
:10396000B3EEE702639A0E02B3C7E70233EFE70252
:1039700063140F02B3C7E702B3EFE702639E0F00C1
:10398000B3C7E70233E6E70263180600B3C7E702EE
:10399000B3E2E702E38202FA635CF8001305150064
:1039A00093771500E38007E8930705006FF0DFF1D8
:1039B0006780000000000000000000001308000005
:1039C00063C6051263DC0600B337C000B306D040FF
:1039D0001348F8FFB386F6403306C040930806004C
:1039E0001307050013830500639A060E63F4C516DA
:1039F000B70701006364F622B70700019306800150
:103A00006374F60093060001B7270180335ED60089
:103A10009387C776B387C70183C70700130E0002D9
:103A2000B387D700B306FE40630CFE003393D50086
:103A3000B357F500B318D60033E367003317D5004A
:103A400013D608013355C3029396080193D6060195
:103A5000935707013373C302B385A60213130301FF
:103A6000B3E7670063FCB700B387F8001303F5FF03
:103A700063E4170163E6B74013050300B387B7405B
:103A8000B3D5C7021317070113570701B3F7C702CE
:103A9000B386B602939707013367F700637ED700BA
:103AA0003387E8009387F5FF636617019385E5FF89
:103AB0006364D70093850700131505013365B500CE
:103AC00093050000630A0800B337A000B305B040B7
:103AD000B385F5403305A0406780000063F4D5024C
:103AE00093050000130500006FF0DFFDB337A00061
:103AF000B305B040B385F5403305A0401308F0FF8F
:103B00006FF05FECB707010063E8F61EB70700012E
:103B10009308800163F4F60093080001B727018041
:103B200033D716019387C776B387E70003C707002B
:103B30009307000233071701B388E7406396E71C39
:103B400063E4B6303335C500133515009305000026
:103B50006FF05FF7630C060CB7070100637CF62C6F
:103B6000133306101333130013133300B3566600D8
:103B7000B72701809387C776B387D70083C607002E
:103B800093070002B3866600B38ED7406394D70CC8
:103B9000B386C540135306011316060113560601DA
:103BA0009305100033D5660293570701B3F66602FA
:103BB000330EC50293960601B3E7D70063FCC70135
:103BC000B387F8009306F5FF63E4170163E4C72B9E
:103BD00013850600B387C741B3D6670213170701E1
:103BE00013570701B3F767023386C602939707019D
:103BF0003367F700637EC7003387E8009387F6FFDB
:103C0000636617019386E6FF6364C7009386070027
:103C1000131505013365D5006FF0DFEA9336061002
:103C200093B61600939636006FF01FDEB72701801B
:103C3000930600009387C776B387D70083C6070033
:103C40001303000093070002B3866600B38ED740CB
:103C5000E380D7F4B318D60133DED50013D30801BF
:103C6000B3576E021396080113560601B356D500DA
:103C70003317D501B395D501B3E6B60093D5060148
:103C8000337E6E023305F602131E0E01B3E5C50145
:103C900063FEA500B385B800138EF7FF63E4151D1E
:103CA00063F2A51C9387E7FFB3851501B385A54093
:103CB00033D565029396060193D60601B3F56502E6
:103CC000330EA60293950501B3E6B60063FEC60166
:103CD000B386D8009305F5FF63EE161763FCC6178D
:103CE0001305E5FFB386160193950701B386C64118
:103CF000B3E5A5006FF01FEB93B8061093B818005A
:103D0000939838006FF09FE1B35EE600B39616011A
:103D1000B3EEDE0033D3E50013DF0E01B357E30348
:103D2000139E0E01B3951501135E0E013357E50086
:103D30003367B70093560701331616013373E30355
:103D4000B305FE0213130301B3E6660063FEB6007B
:103D5000B386DE001383F7FF63EAD61163F8B6106B
:103D60009387E7FFB386D601B386B640B3D5E603A3
:103D70001317070113570701B3F6E6033303BE0217
:103D8000939606013367D700637E67003387EE00A2
:103D90009386F5FF6364D70D6372670C9385E5FF27
:103DA0003307D70193970701370F0100B3E7B70037
:103DB0009306FFFFB3F5D70013DE0701B376D600F5
:103DC00013560601B38ED50233076740B306DE02F1
:103DD00013D30E01B385C502B385D500B305B30077
:103DE000330ECE0263F4D500330EEE0193D60501F7
:103DF000B386C601636AD7026308D700138507003C
:103E0000930500006FF01FCCB70601009386F6FF04
:103E100033F7D50013170701B3FEDE003315150184
:103E20003307D701E37CE5FC1385F7FF930500001A
:103E30006FF05FC9B7070001637AF6049356060175
:103E4000130300016FF0DFD293050000130510008B
:103E50006FF05FC7138505006FF01FE993850600BB
:103E60006FF05FF493070E006FF05FE493070300B9
:103E70006FF09FEF1305E5FFB38717016FF09FD534
:103E80001305E5FFB38717016FF05FBF93568601F7
:103E9000130380016FF0DFCD1308060093080500BF
:103EA000138705006390060E63FEC512B707010075
:103EB000636EF61EB7070001930680016374F60077
:103EC00093060001B72701803353D6009387C77646
:103ED000B387670083C7070013030002B387D700C7
:103EE000B306F340630CF3003397D500B357F500E6
:103EF0003318D60033E7E700B318D500135608018E
:103F00003355C7029316080193D6060193D70801CB
:103F10003377C702B385A60213170701B3E7E7009B
:103F200063FCB700B307F8001307F5FF63E407016C
:103F300063E0B73E13050700B387B74033D7C70226
:103F40009398080193D80801B3F7C702B386E60235
:103F500093970701B3E8F80063FED800B30818018F
:103F60009307F7FF63E608011307E7FF63E4D80050
:103F700013870700131505013365E500930500005D
:103F80006780000063F8D50093050000130500006A
:103F900067800000B707010063E8F61EB70700015D
:103FA0001308800163F4F60013080001B7270180AD
:103FB00033D706019387C776B387E70003C70700A7
:103FC00093070002330707013388E7406396E71C35
:103FD00063E4B6303335C500133515009305000092
:103FE00067800000630C060CB7070100637CF62CA9
:103FF000133706101337170013173700B356E600B0
:10400000B72701809387C776B387D70083C7070098
:1040100093060002B387E700B38EF6406394F60C74
:10402000B387C540935606011316060113560601C1
:104030009305100033D5D70213D70801B3F7D70281
:104040003303C50293970701B367F70063FC67006A
:10405000B307F8001307F5FF63E4070163E4672A79
:1040600013050700B387674033D7D7029398080139
:1040700093D80801B3F7D7023306C7029397070115
:10408000B3E8F80063FEC800B30818019307F7FF10
:1040900063E608011307E7FF63E4C800138707001E
:1040A000131505013365E50067800000933606109F
:1040B00093B61600939636006FF0DFE0B7270180C5
:1040C000930600009387C776B387D70083C707009E
:1040D0001307000093060002B387E700B38EF64093
:1040E000E380F6F43318D60133D3F5009356080174
:1040F000335ED30213160801B395D501135606019A
:10410000B357F500B3E7B70013D70701B318D501CC
:104110003373D302B305C603131303013367670078
:10412000637EB7003307E8001305FEFF6364071DD5
:104130006372B71C130EEEFF330707013307B74056
:104140003355D7029397070193D707013377D702E7
:104150003303A60213170701B3E7E70063FE670006
:10416000B307F8001307F5FF63EE071763FC671644
:104170001305E5FFB387070193150E01B387674069
:10418000B3E5A5006FF01FEB13B806101338180045
:10419000131838006FF09FE1335EE600B396060116
:1041A000336EDE00B3D8E500935E0E01B3D7D803BB
:1041B00013130E01B3950501135303013357E500A3
:1041C0003367B7009356070133160601B3F8D803D7
:1041D000B305F30293980801B3E6160163FEB60037
:1041E000B306DE009388F7FF63EAC61163F8B610E2
:1041F0009387E7FFB386C601B386B640B3D5D6032F
:104200001317070113570701B3F6D603B308B30218
:10421000939606013367D700637E17013307EE00DC
:104220009386F5FF6364C70D6372170D9385E5FFF1
:104230003307C70193970701B70E0100B3E7B70033
:104240009386FEFFB3F5D70013D30701B376D600EC
:1042500013560601338ED50233071741B306D30236
:1042600093580E01B385C502B385D500B385B80058
:104270003303C30263F4D5003303D30193D605019E
:10428000B3866600636AD7026308D7001385070008
:104290009305000067800000B70601009386F6FFD3
:1042A00033F7D50013170701337EDE003315050100
:1042B0003307C701E37CE5FC1385F7FF9305000096
:1042C00067800000B7070001637AF6049356060181
:1042D000130700016FF0DFD29305000013051000F3
:1042E00067800000130507006FF01FE99385060043
:1042F0006FF05FF4130E05006FF05FE49387080022
:104300006FF09FEF1305E5FFB38707016FF09FD5AF
:104310001305E5FFB38707016FF01FC293568601AF
:10432000130780016FF0DFCD9305050093060000B1
:1043300013060000130500006F109049130101FFE0
:104340009305000023248100232611001304050097
:10435000EF10905183A781F563840700E780070081
:1043600013050400EFC0CFB59305050003A541F484
:104370006F0000019305050003A541F46F109075CF
:10438000130101FD232E3101232611022324810272
:1043900023229102232021039387B5001307600194
:1043A000930905006360F7089307000163E0B720F5
:1043B000EF0000789307800193052000930400012B
:1043C00013898182B307F90003A44700138787FF8D
:1043D0006300E434832744008326C400032684005A
:1043E00093F7C7FFB307F40003A747002326D600BF
:1043F00023A4C600136717001385090023A2E70052
:10440000EF004073130584008320C102032481025E
:1044100083244102032901028329C10113010103FD
:104420006780000093F487FF63C2071863E0B41845
:10443000EF0000709307701F63F6973E93D79400C8
:10444000638E071613074000636CF73293D764003E
:104450009385970313888703139635001389818208
:104460003306C90003244600130686FF630886024C
:104470001305F0006F0040018326C400635607282F
:10448000630ED600138406008327440093F7C7FF0A
:1044900033879740E352E5FE9305080003240901A2
:1044A00093088900630E1425832744009306F000C7
:1044B00093F7C7FF3387974063CCE636232A190169
:1044C00023281901635007341307F01F03254900FF
:1044D0006368F72413F787FF130787003307E900A2
:1044E0008326070013D6570093071000B397C70021
:1044F0003365F500930787FF2326F4002324D400B7
:104500002322A9002320870023A6860093D72540D5
:10451000130610003316F600636AC50AB377A600C7
:10452000639407021316160093F5C5FFB377A60030
:1045300093854500639A070013161600B377A6000B
:1045400093854500E38A07FE1308F00013933500B6
:1045500033036900130503008327C500138E05008C
:104560006302F52403A747001384070083A7C7004D
:104570001377C7FFB30697406342D824E3C206FE11
:104580003307E400832647000326840013850900CF
:1045900093E616002322D7002326F60023A4C700A3
:1045A000EF004059130584006FF01FE69307C00029
:1045B00023A0F900130500006FF01FE5130600208B
:1045C000930500041308F0036FF05FE903248900EA
:1045D000232861018327440013FBC7FF63689B0006
:1045E00033079B409307F00063CAE70C2322910135
:1045F000232A510103A7C1F383AA41F5232C4101CA
:10460000232671019307F0FF330A6401B38A540132
:104610006306F73CB71700009387F700B38AFA00E8
:10462000B7F7FFFFB3FAFA0093850A001385090074
:10463000EF10804D9307F0FF930B0500630AF544DC
:1046400023248101636E4523138C81F683250C009E
:10465000B385BA002320BC00138705006316AA2A7D
:10466000931745016392072A832B8900B3075B01E7
:1046700093E7170023A2FB0083A601F563F4B600BD
:1046800023A8B1F483A6C1F463F4B60023A6B1F461
:10469000032C810013840B0093F7C7FF33879740E7
:1046A00063EA97389307F00063D6E738032A81015D
:1046B000832A4101832BC100832C410093E714001E
:1046C0002322F400B30494002324990013671700F5
:1046D0001385090023A2E400EF00C0458320C10236
:1046E0001305840003248102032B0101832441026A
:1046F000032901028329C10113010103678000001E
:10470000032549006FF09FE0032684006FF09FCDE2
:1047100003A4C70093852500E38287D86FF09FCB61
:1047200013D797009306400063F2E6149306400106
:1047300063E4E6321306C7059306B7051316360081
:104740003306C90003270600130686FF6318E60038
:104750006F004029032787006308E600832647008F
:1047600093F6C6FFE3E8D7FE0326C7002326C4005E
:104770002324E40023248600232687006FF01FD91A
:10478000130740016378F710130740056364F72EA1
:1047900093D7C4009385F7061388E7061396350070
:1047A0006FF0DFCB130E1E0093773E0013058500DC
:1047B000638007108327C5006FF09FDA032684000B
:1047C00093E514002322B4002326F60023A4C70097
:1047D000B3049400232A99002328990093E7160034
:1047E00023A6140123A4140123A2F4003307E40038
:1047F000138509002320D700EF00C0331305840080
:104800006FF09FC0B307F40003A7470013850900AA
:104810001367170023A2E700EF00C03113058400DF
:104820006FF09FBE93D53400938784006FF05FB91B
:1048300093E614002322D400B3049400232A9900A1
:10484000232899009366170023A6140123A41401BA
:1048500023A2D400B307F4001385090023A0E700C6
:10486000EF00402D130584006FF01FBA13D76700C7
:104870001306970393068703131636006FF05FEC59
:10488000630C240703248900032C81008327440040
:104890006FF09FE09385C7051388B7051396350021
:1048A0006FF0DFBB832783009385F5FF639E672648
:1048B00093F73500130383FFE39607FE03274900B0
:1048C0009347F6FFB3F7E7002322F900131616000B
:1048D000E3EEC7CEE30C06CE3377F600631A07008B
:1048E000131616003377F600130E4E00E30A07FE88
:1048F00093050E006FF09FC5138C81F603270C0003
:104900003387EA002320EC0083A6C1F39307F0FF6E
:104910006386F618B3874B41B387E7002320FC007A
:1049200093FC7B00638C0C0CB38B9B41B71700008E
:1049300093878700938B8B00B3859741B38A5B0184
:10494000B38555419395450113DA450193050A0056
:1049500013850900EF10401B9307F0FF6300F51863
:1049600033057541B30A450103270C00232479015F
:1049700093E71A00B305EA002320BC0023A2FB0042
:10498000E30C24CF9306F00063F0660B032744008A
:1049900093074BFF93F787FF137717003367F700F1
:1049A0002322E400130650003307F4002322C7003B
:1049B0002324C70063E6F60083A74B006FF0DFCB2C
:1049C0009305840013850900EF10D010832B890014
:1049D00083250C0083A74B006FF01FCA938A0A013E
:1049E0006FF09FC493D6264093071000B397D7006B
:1049F0003365F5002322A9006FF05FD7B3855B0113
:104A0000B305B0409395450113DA450193050A00BB
:104A100013850900EF10400F9307F0FFE312F5F440
:104A2000130A00006FF05FF4032C8100930710005D
:104A300023A2FB0013850900EF00C00F130500003F
:104A4000032A8101832A4101032B0101832BC10029
:104A5000832C41006FF05F9B9306400563E4E604FE
:104A600013D7C7001306F7069306E706131636009A
:104A70006FF01FCD130740156364F70493D7F4005C
:104A80009385870713887707139635006FF01F9D6E
:104A900003248900832744006FF01FC023AE71F305
:104AA0006FF01FE89306401563E4E60413D7F700A0
:104AB0001306870793067707131636006FF05FC853
:104AC000130740556364F70493D724019385D707F0
:104AD0001388C707139635006FF05F98938C8CFF8F
:104AE000B38A9A01B38A7A41130A00006FF0DFE7B4
:104AF0009306405563E4E60213D727011306D70750
:104B00009306C707131636006FF09FC31306803F46
:104B10009305F0071308E0076FF05F941306803FDA
:104B20009306E0076FF0DFC1832749006FF01FDABB
:104B300067800000678000001305000067800000A8
:104B4000B7950080138601C39385456B138501C417
:104B50006F000041130101FF8325450023248100DC
:104B60002322910023261100138401F993040500E8
:104B700063848500EF40103483A584009307840686
:104B80006386F50013850400EF40D03283A5C4008E
:104B90001304040D638E8500032481008320C1006B
:104BA0001385040083244100130101016F409030FC
:104BB0008320C100032481008324410013010101EB
:104BC000678000001305000067800000130101FEEC
:104BD000232C8100B7570080138401F9938707B411
:104BE000232E1100232A910023282101232631019D
:104BF0002324410123ACF1F4130680009307400005
:104C0000930500001305C4052326F40023200400A7
:104C10002322040023240400232204062328040062
:104C2000232A0400232C0400EF10C009B707010059
:104C3000375A0080B759008037590080B754008038
:104C4000130ACA449389094B130989539384045B5B
:104C50009387970013068000930500001305440C0A
:104C600023204403232234032324240323269402F1
:104C7000232AF406232E8400232404062326040674
:104C8000232804062326040C232C0406232E0406C2
:104C900023200408EF100003B7070200130784065F
:104CA000938727011305C4121306800093050000A3
:104CB000232444092326340923282409232A940879
:104CC000232EF40C2322E4082328040C232A040CAA
:104CD000232C040C232A04122320040E2322040E66
:104CE0002324040EEF00107E9307040D2328440FA5
:104CF000232A340F232C240F232E940E8320C1014A
:104D00002326F40E03248101832441010329010198
:104D10008329C100032A810013010102678000007A
:104D200083A781F5130101FE23263101232E1100F3
:104D3000232C8100232A91002328210193090500B7
:104D40006386070E138901C39304F0FF832749008C
:104D5000032489009387F7FF63D807006F000008DA
:104D600013048406638C97060317C4009387F7FF28
:104D7000E31807FEB707FFFF938717002326F40009
:104D800023220406232004002324040023220400F9
:104D900023280400232A0400232C04001306800087
:104DA000930500001305C405EF00D0712328040209
:104DB000232A040223220404232404048320C1019F
:104DC0001305040003248101832441010329010107
:104DD0008329C10013010102678000000324090038
:104DE00063060400130904006FF05FF69305C01A10
:104DF00013850900EFF0CFD813040500630C0502FA
:104E00001305C50093074000232004002322F4006B
:104E10002324A4001306001A93050000EF00906AF3
:104E200023208900130904006FF05FF2EFF01FDA0E
:104E30006FF05FF1232009009307C00023A0F90061
:104E40006FF0DFF783274503638407006780000066
:104E500003A781F5B7570080938747B5232AF5024A
:104E6000E31607FE6FF09FD66780000067800000A2
:104E7000B7550080138601C3938585B313050000E1
:104E80006F00000EB7550080138601C3938545BCA3
:104E9000130500006F00C00C130101FE232C8100DC
:104EA000232E110013040500630605008327450324
:104EB000638C070013050400032481018320C101D2
:104EC000130101026F0080372326C1002324B100A3
:104ED000EFF05FF713050400032481010326C100EE
:104EE000832581008320C101130101026F00003579
:104EF000130101FE232A910083A441F4232C810095
:104F0000232E110013040500138605006386040098
:104F100083A74403638007029305040003248101EF
:104F20008320C10113850400832441011301010280
:104F30006F00C030138504002326B100EFF09FF00E
:104F400093050400032481010326C1008320C101CD
:104F50001385040083244101130101026F00002E18
:104F6000130101FD23202103232E3101232C4101B4
:104F7000232A5101232861012326710123261102CE
:104F80002324810223229102130B0500938B050039
:104F9000930A0600130A0000930910001309F0FF9A
:104FA00083A44A0003A48A009384F4FF63C8040224
:104FB0008357C40063FEF9008317E40093050400DF
:104FC00013050B0063862701E7800B00336AAA00F4
:104FD0009384F4FF13048406E39C24FD83AA0A004F
:104FE000E3900AFC8320C10203248102832441024E
:104FF000032901028329C101832A4101032B0101F5
:10500000832BC10013050A00032A81011301010348
:1050100067800000130101FB232021053389C602AC
:105020009307C1012322F102930710002324810476
:1050300023229104232E3103232EB10023261104B1
:105040002324F102232021032326210393090600B0
:10505000138406009304050093050700630605000A
:1050600083274503638607068397C50013972701A7
:105070006342070203A74506B7E6FFFF9386F6FFE4
:1050800037260000B3E7C7003377D7002396F50033
:1050900023A2E5061306410213850400EF405025C4
:1050A000630805008327C1023309F94033543903EB
:1050B0008320C104130504000324810483244104D4
:1050C000032901048329C10313010105678000003E
:1050D0002326E100EFF01FD78325C1006FF0DFF832
:1050E000130101FB23229104B384C502232E310353
:1050F00083A941F49307C1012322F1029307100011
:10510000232481042320210523261104232EA1001A
:105110002324F10223209102232691021389050002
:1051200013040600938506006386090083A74903DC
:10513000638607068397C50013972701634207021A
:1051400003A74506B7E6FFFF9386F6FF3726000064
:10515000B3E7C7003377D7002396F50023A2E5060F
:105160001306410213850900EF40901863080500FB
:105170008327C102B384F44033D424038320C104C1
:10518000130504000324810483244104032901043A
:105190008329C103130101056780000013850900FD
:1051A0002326D100EFF01FCA8325C1006FF09FF8BE
:1051B000130101FC2324C1022326D1022328E1028A
:1051C000232AF102232C0103232E11031386050049
:1051D0008325850093068102232E11002326D1000A
:1051E000EF10803F8320C10113010104678000009C
:1051F00003A341F4130101FC2324C1022326D1029D
:105200002322B1022328E102232AF102232C0103E5
:10521000232E110383258300930641021306050004
:1052200013050300232E11002326D100EF10C03AEE
:105230008320C1011301010467800000130101FEF6
:10524000232C8100232E11001304050063060500A2
:105250008327450363800706832786009387F7FF2C
:105260002324F60063DC07000327860163CAE702F4
:1052700093F7F50F1307A0006384E7028327060066
:1052800013F5F50F138717002320E6002380B700DE
:105290008320C10103248101130101026780000002
:1052A00013050400032481018320C10113010102BD
:1052B0006F0080302326C1002324B100EFF09FB897
:1052C0000326C100832581006FF01FF9130101FE41
:1052D000232A210103A941F4232C9100232E11003C
:1052E00093040500630609008327490363880706C2
:1052F00083A785009387F7FF23A4F50063DC0700ED
:1053000003A7850163CCE70293F7F40F1307A0000E
:105310006386E70283A7050013F5F40F13871700D0
:1053200023A0E500238097008320C101832481010D
:105330000329410113010102678000008320C1019C
:105340001386050013050900938504000329410114
:1053500083248101130101026F0000261305090057
:105360002326B100EFF01FAE8325C1006FF05FF878
:10537000130101FC232C8102130405001385050091
:10538000232A9102232E110293840500EF00903B03
:10539000B73701809387C7862324F1029307100053
:1053A0002326F10203274403930701029306150005
:1053B000232AF10093072000232091022322A10237
:1053C000232ED100232CF1008325840063000706DF
:1053D0008397C500139727016342070203A7450679
:1053E000B7E6FFFF9386F6FF37260000B3E7C70056
:1053F0003377D7002396F50023A2E5061306410173
:1054000013050400EF40C06E8320C1030324810311
:10541000133515003305A0401375B50083244103EF
:105420001305F5FF13010104678000001305040054
:105430002326B100EFF01FA18325C1006FF05FF9B3
:105440009305050003A541F46FF09FF2130101FFDE
:1054500023248100138405008395E5002326110091
:10546000EF00006463400502832704058320C10028
:10547000B387A7002328F40403248100130101014A
:10548000678000008357C40037F7FFFF1307F7FF5B
:10549000B3F7E7008320C1002316F4000324810042
:1054A0001301010167800000130500006780000000
:1054B0008397C500130101FE232C8100232A91004C
:1054C0002328210123263101232E110013F7071071
:1054D0001384050093040500130906009389060050
:1054E0006310070437F7FFFF1307F7FFB3F7E70071
:1054F0008315E4002316F400032481018320C101F5
:1055000093860900130609008329C10003290101BC
:105510001385040083244101130101026F0080649C
:105520008395E5009306200013060000EF00C050AD
:105530008317C4006FF01FFB130101FF23248100B8
:10554000138405008395E50023261100EF00C04E6B
:105550009307F0FF6308F5028357C4003717000074
:105560008320C100B3E7E7009397070193D7074172
:105570002328A4042316F40003248100130101014D
:10558000678000008357C40037F7FFFF1307F7FF5A
:10559000B3F7E7009397070193D707418320C10032
:1055A0002316F40003248100130101016780000029
:1055B0008395E5006F004036130101FE232C810026
:1055C000232A910023282101232E1100130905000D
:1055D0009384050013040600630605008327450332
:1055E00063800716832784010317C4002324F40073
:1055F000937787006380070883270401638C07067D
:10560000232631019316270193F9F40F93F4F40F35
:1056100063D806080327040083264401B307F74034
:1056200063D8D70A83268400130617002320C400FA
:105630009386F6FF2324D400230037010327440177
:10564000938717006302F70C8357C40093F7170082
:10565000639A070C8329C1008320C10103248101BF
:105660000329010113850400832441011301010270
:10567000678000009305040013050900EF00000E89
:10568000631E05080317C400232631018327040184
:105690009316270193F9F40F93F4F40FE3CC06F675
:1056A0008326440637E6FFFFB72500003367B700BF
:1056B0001306F6FFB3F6C6002316E4000327040022
:1056C0002322D40683264401B307F740E3CCD7F462
:1056D0009305040013050900EF40C033631E050263
:1056E0000327040083268400930710001306170085
:1056F0009386F6FF2320C4002324D400230037011F
:1057000003274401E312F7F493050400130509008D
:10571000EF404030E30005F48329C1009304F0FF1B
:105720006FF09FF39307A000E396F4F29305040053
:1057300013050900EF40002EE30E05F06FF0DFFDCA
:10574000EFF04FF06FF01FEA9307050003A541F457
:1057500013860500938507006FF01FE683A741F4C9
:10576000130101FF2324810023229100232611002D
:1057700093040500138405006386070003A747030D
:10578000630C070E8317C40013F78700630A07062C
:10579000032704016306070893F6170063880602CF
:1057A000832644012324040013050000B306D040DF
:1057B000232CD400630A07028320C1000324810044
:1057C00083244100130101016780000093F6270044
:1057D0001306000063940600032644012324C4003A
:1057E00013050000E31A07FC13F70708E30607FC9C
:1057F00093E707042316F4001305F0FF6FF0DFFBB7
:1058000013F707016300070813F74700631C07023B
:105810000327040193E787002316F400E31E07F62D
:1058200093F6072813060020E388C6F693050400C4
:1058300013850400EF40C07C8317C40003270401D4
:105840006FF09FF583250403638E0500130704049E
:105850006388E50013850400EF00D0278317C40098
:10586000232804020327040193F7B7FD2322040031
:105870002320E4006FF01FFA13850700EFF08FDCA0
:105880006FF05FF01307900023A0E40093E7070494
:105890002316F4001305F0FF6FF01FF2930730009A
:1058A00063FEC702B3E7A50093F7370063940702CE
:1058B000930630006F0040011306C6FF1305450034
:1058C0009385450063FCC6000327050083A70500F8
:1058D000E304F7FE9306F6FF6F00C0009306F6FFA1
:1058E0006308060293861600B306D5006F00800099
:1058F0006380A6028347050003C705001305150052
:1059000093851500E386E7FE3385E7406780000056
:105910001305000067800000130101FF23248100AC
:10592000232291001304050013850500232611008E
:1059300023AE01F4EFA0DFD69307F0FF630CF50070
:105940008320C1000324810083244100130101014D
:105950006780000083A7C1F5E38407FE8320C100B0
:105960002320F4000324810083244100130101015A
:105970006780000083A741F4638EA70A832545044E
:10598000130101FE232A9100232E11009304050028
:10599000638C05042328210123263101232C810057
:1059A0001309000093090008B387250103A4070029
:1059B000630E04009305040003240400138504000F
:1059C000EF005011E31804FE83A5440413094900B5
:1059D000E31C39FD13850400EF00D00F032481017F
:1059E000032901018329C10083A58403638605007F
:1059F00013850400EF00100E83A5C4046386050020
:105A000013850400EF00100D83A74403638C070087
:105A10008320C10113850400832441011301010285
:105A2000678007008320C101832441011301010223
:105A30006780000067800000130101FF13870500E5
:105A400023248100232291009305060013040500FE
:105A500013860600130507002326110023AE01F468
:105A6000EFA01FD29307F0FF630CF5008320C10065
:105A70000324810083244100130101016780000099
:105A800083A7C1F5E38407FE8320C1002320F4002F
:105A90000324810083244100130101016780000079
:105AA000130101FF138705002324810023229100A5
:105AB000930506001304050013860600130507006E
:105AC0002326110023AE01F4EFA09FCF9307F0FF30
:105AD000630CF5008320C10003248100832441006E
